{
  "contracts/EthernalLock.sol": {
    "EthernalLock": {
      "abi": [
        {
          "inputs": [],
          "stateMutability": "nonpayable",
          "type": "constructor"
        },
        {
          "anonymous": false,
          "inputs": [
            {
              "indexed": true,
              "internalType": "address",
              "name": "_from",
              "type": "address"
            },
            {
              "indexed": true,
              "internalType": "address",
              "name": "_lovee",
              "type": "address"
            },
            {
              "indexed": false,
              "internalType": "string",
              "name": "_txt",
              "type": "string"
            }
          ],
          "name": "LockCreated",
          "type": "event"
        },
        {
          "inputs": [],
          "name": "cashOut",
          "outputs": [],
          "stateMutability": "nonpayable",
          "type": "function"
        },
        {
          "inputs": [
            {
              "internalType": "uint256",
              "name": "lockIndex",
              "type": "uint256"
            },
            {
              "components": [
                {
                  "internalType": "uint8",
                  "name": "R",
                  "type": "uint8"
                },
                {
                  "internalType": "uint8",
                  "name": "G",
                  "type": "uint8"
                },
                {
                  "internalType": "uint8",
                  "name": "B",
                  "type": "uint8"
                }
              ],
              "internalType": "struct EthernalLock.Color",
              "name": "backgroundColor",
              "type": "tuple"
            },
            {
              "components": [
                {
                  "internalType": "uint8",
                  "name": "R",
                  "type": "uint8"
                },
                {
                  "internalType": "uint8",
                  "name": "G",
                  "type": "uint8"
                },
                {
                  "internalType": "uint8",
                  "name": "B",
                  "type": "uint8"
                }
              ],
              "internalType": "struct EthernalLock.Color",
              "name": "lockColor",
              "type": "tuple"
            },
            {
              "components": [
                {
                  "internalType": "uint8",
                  "name": "R",
                  "type": "uint8"
                },
                {
                  "internalType": "uint8",
                  "name": "G",
                  "type": "uint8"
                },
                {
                  "internalType": "uint8",
                  "name": "B",
                  "type": "uint8"
                }
              ],
              "internalType": "struct EthernalLock.Color",
              "name": "labelColor",
              "type": "tuple"
            },
            {
              "components": [
                {
                  "internalType": "uint8",
                  "name": "R",
                  "type": "uint8"
                },
                {
                  "internalType": "uint8",
                  "name": "G",
                  "type": "uint8"
                },
                {
                  "internalType": "uint8",
                  "name": "B",
                  "type": "uint8"
                }
              ],
              "internalType": "struct EthernalLock.Color",
              "name": "textColor",
              "type": "tuple"
            },
            {
              "internalType": "uint256",
              "name": "lockType",
              "type": "uint256"
            },
            {
              "internalType": "string",
              "name": "text",
              "type": "string"
            },
            {
              "internalType": "bool",
              "name": "encrypted",
              "type": "bool"
            },
            {
              "internalType": "address",
              "name": "lovee",
              "type": "address"
            }
          ],
          "name": "createLock",
          "outputs": [
            {
              "internalType": "uint256",
              "name": "pos",
              "type": "uint256"
            }
          ],
          "stateMutability": "payable",
          "type": "function"
        },
        {
          "inputs": [
            {
              "internalType": "uint256",
              "name": "",
              "type": "uint256"
            }
          ],
          "name": "customLockPrices",
          "outputs": [
            {
              "internalType": "uint256",
              "name": "",
              "type": "uint256"
            }
          ],
          "stateMutability": "view",
          "type": "function"
        },
        {
          "inputs": [],
          "name": "defaultLockPrice",
          "outputs": [
            {
              "internalType": "uint256",
              "name": "",
              "type": "uint256"
            }
          ],
          "stateMutability": "view",
          "type": "function"
        },
        {
          "inputs": [
            {
              "internalType": "uint256",
              "name": "number",
              "type": "uint256"
            }
          ],
          "name": "disableLockCreation",
          "outputs": [],
          "stateMutability": "nonpayable",
          "type": "function"
        },
        {
          "inputs": [],
          "name": "getLockCount",
          "outputs": [
            {
              "internalType": "uint256",
              "name": "count",
              "type": "uint256"
            }
          ],
          "stateMutability": "view",
          "type": "function"
        },
        {
          "inputs": [
            {
              "internalType": "uint256",
              "name": "lockType",
              "type": "uint256"
            }
          ],
          "name": "getLockPrice",
          "outputs": [
            {
              "internalType": "uint256",
              "name": "lockPrice",
              "type": "uint256"
            }
          ],
          "stateMutability": "view",
          "type": "function"
        },
        {
          "inputs": [
            {
              "internalType": "uint256",
              "name": "start",
              "type": "uint256"
            },
            {
              "internalType": "uint256",
              "name": "count",
              "type": "uint256"
            }
          ],
          "name": "getLocksSet",
          "outputs": [
            {
              "components": [
                {
                  "components": [
                    {
                      "internalType": "uint8",
                      "name": "R",
                      "type": "uint8"
                    },
                    {
                      "internalType": "uint8",
                      "name": "G",
                      "type": "uint8"
                    },
                    {
                      "internalType": "uint8",
                      "name": "B",
                      "type": "uint8"
                    }
                  ],
                  "internalType": "struct EthernalLock.Color",
                  "name": "BackgroundColor",
                  "type": "tuple"
                },
                {
                  "components": [
                    {
                      "internalType": "uint8",
                      "name": "R",
                      "type": "uint8"
                    },
                    {
                      "internalType": "uint8",
                      "name": "G",
                      "type": "uint8"
                    },
                    {
                      "internalType": "uint8",
                      "name": "B",
                      "type": "uint8"
                    }
                  ],
                  "internalType": "struct EthernalLock.Color",
                  "name": "LockColor",
                  "type": "tuple"
                },
                {
                  "components": [
                    {
                      "internalType": "uint8",
                      "name": "R",
                      "type": "uint8"
                    },
                    {
                      "internalType": "uint8",
                      "name": "G",
                      "type": "uint8"
                    },
                    {
                      "internalType": "uint8",
                      "name": "B",
                      "type": "uint8"
                    }
                  ],
                  "internalType": "struct EthernalLock.Color",
                  "name": "LabelColor",
                  "type": "tuple"
                },
                {
                  "components": [
                    {
                      "internalType": "uint8",
                      "name": "R",
                      "type": "uint8"
                    },
                    {
                      "internalType": "uint8",
                      "name": "G",
                      "type": "uint8"
                    },
                    {
                      "internalType": "uint8",
                      "name": "B",
                      "type": "uint8"
                    }
                  ],
                  "internalType": "struct EthernalLock.Color",
                  "name": "TextColor",
                  "type": "tuple"
                },
                {
                  "internalType": "uint256",
                  "name": "LockType",
                  "type": "uint256"
                },
                {
                  "internalType": "string",
                  "name": "Text",
                  "type": "string"
                },
                {
                  "internalType": "bool",
                  "name": "Encrypted",
                  "type": "bool"
                },
                {
                  "internalType": "address",
                  "name": "Lovee",
                  "type": "address"
                }
              ],
              "internalType": "struct EthernalLock.Lock[]",
              "name": "lockSet",
              "type": "tuple[]"
            }
          ],
          "stateMutability": "view",
          "type": "function"
        },
        {
          "inputs": [],
          "name": "highestValidLockType",
          "outputs": [
            {
              "internalType": "uint256",
              "name": "",
              "type": "uint256"
            }
          ],
          "stateMutability": "view",
          "type": "function"
        },
        {
          "inputs": [],
          "name": "lockCount",
          "outputs": [
            {
              "internalType": "uint256",
              "name": "",
              "type": "uint256"
            }
          ],
          "stateMutability": "view",
          "type": "function"
        },
        {
          "inputs": [
            {
              "internalType": "uint256",
              "name": "",
              "type": "uint256"
            }
          ],
          "name": "lockCreationDisabled",
          "outputs": [
            {
              "internalType": "bool",
              "name": "",
              "type": "bool"
            }
          ],
          "stateMutability": "view",
          "type": "function"
        },
        {
          "inputs": [
            {
              "internalType": "uint256",
              "name": "",
              "type": "uint256"
            }
          ],
          "name": "locks",
          "outputs": [
            {
              "components": [
                {
                  "internalType": "uint8",
                  "name": "R",
                  "type": "uint8"
                },
                {
                  "internalType": "uint8",
                  "name": "G",
                  "type": "uint8"
                },
                {
                  "internalType": "uint8",
                  "name": "B",
                  "type": "uint8"
                }
              ],
              "internalType": "struct EthernalLock.Color",
              "name": "BackgroundColor",
              "type": "tuple"
            },
            {
              "components": [
                {
                  "internalType": "uint8",
                  "name": "R",
                  "type": "uint8"
                },
                {
                  "internalType": "uint8",
                  "name": "G",
                  "type": "uint8"
                },
                {
                  "internalType": "uint8",
                  "name": "B",
                  "type": "uint8"
                }
              ],
              "internalType": "struct EthernalLock.Color",
              "name": "LockColor",
              "type": "tuple"
            },
            {
              "components": [
                {
                  "internalType": "uint8",
                  "name": "R",
                  "type": "uint8"
                },
                {
                  "internalType": "uint8",
                  "name": "G",
                  "type": "uint8"
                },
                {
                  "internalType": "uint8",
                  "name": "B",
                  "type": "uint8"
                }
              ],
              "internalType": "struct EthernalLock.Color",
              "name": "LabelColor",
              "type": "tuple"
            },
            {
              "components": [
                {
                  "internalType": "uint8",
                  "name": "R",
                  "type": "uint8"
                },
                {
                  "internalType": "uint8",
                  "name": "G",
                  "type": "uint8"
                },
                {
                  "internalType": "uint8",
                  "name": "B",
                  "type": "uint8"
                }
              ],
              "internalType": "struct EthernalLock.Color",
              "name": "TextColor",
              "type": "tuple"
            },
            {
              "internalType": "uint256",
              "name": "LockType",
              "type": "uint256"
            },
            {
              "internalType": "string",
              "name": "Text",
              "type": "string"
            },
            {
              "internalType": "bool",
              "name": "Encrypted",
              "type": "bool"
            },
            {
              "internalType": "address",
              "name": "Lovee",
              "type": "address"
            }
          ],
          "stateMutability": "view",
          "type": "function"
        },
        {
          "inputs": [
            {
              "internalType": "address",
              "name": "",
              "type": "address"
            }
          ],
          "name": "owners",
          "outputs": [
            {
              "internalType": "bool",
              "name": "",
              "type": "bool"
            }
          ],
          "stateMutability": "view",
          "type": "function"
        },
        {
          "inputs": [
            {
              "internalType": "uint256",
              "name": "lockPrice",
              "type": "uint256"
            }
          ],
          "name": "setDefaultLockPrice",
          "outputs": [],
          "stateMutability": "nonpayable",
          "type": "function"
        },
        {
          "inputs": [
            {
              "internalType": "uint256",
              "name": "count",
              "type": "uint256"
            }
          ],
          "name": "setHighestValidLockType",
          "outputs": [],
          "stateMutability": "nonpayable",
          "type": "function"
        },
        {
          "inputs": [
            {
              "internalType": "uint256",
              "name": "lockType",
              "type": "uint256"
            },
            {
              "internalType": "uint256",
              "name": "lockPrice",
              "type": "uint256"
            }
          ],
          "name": "setLockTypePrice",
          "outputs": [],
          "stateMutability": "nonpayable",
          "type": "function"
        },
        {
          "inputs": [
            {
              "internalType": "address",
              "name": "adr",
              "type": "address"
            },
            {
              "internalType": "bool",
              "name": "isOwner",
              "type": "bool"
            }
          ],
          "name": "setOwner",
          "outputs": [],
          "stateMutability": "nonpayable",
          "type": "function"
        }
      ],
      "evm": {
        "bytecode": {
          "linkReferences": {},
          "object": "608060405234801561001057600080fd5b50662386f26fc100006000908155338152600360205260409020805460ff19166001179055611818806100446000396000f3fe60806040526004361061010e5760003560e01c8063c75cc6c3116100a5578063dedb044311610074578063ee843c7b11610059578063ee843c7b146102ee578063f4dadc6114610304578063f630c8951461033857600080fd5b8063dedb0443146102bb578063e632c00d146102ce57600080fd5b8063c75cc6c314610235578063cb61f4ac1461024b578063cbd873581461026b578063dd8f6aca1461029b57600080fd5b8063516c731c116100e1578063516c731c146101d5578063793cd71e146101f557806394493c431461020a5780639b10b6f51461021f57600080fd5b8063022914a714610113578063297a4caf146101585780633a5f4fee1461017a5780633afbcea91461019a575b600080fd5b34801561011f57600080fd5b5061014361012e366004611124565b60036020526000908152604090205460ff1681565b60405190151581526020015b60405180910390f35b34801561016457600080fd5b50610178610173366004611146565b610365565b005b34801561018657600080fd5b50610178610195366004611146565b6103d3565b3480156101a657600080fd5b506101c76101b5366004611146565b60046020526000908152604090205481565b60405190815260200161014f565b3480156101e157600080fd5b506101786101f036600461116f565b610470565b34801561020157600080fd5b5061017861052a565b34801561021657600080fd5b506002546101c7565b34801561022b57600080fd5b506101c760025481565b34801561024157600080fd5b506101c760065481565b34801561025757600080fd5b506101c7610266366004611146565b6105bd565b34801561027757600080fd5b50610143610286366004611146565b60056020526000908152604090205460ff1681565b3480156102a757600080fd5b506101786102b63660046111a2565b6105e3565b6101c76102c93660046111dc565b610659565b3480156102da57600080fd5b506101786102e9366004611146565b610b8c565b3480156102fa57600080fd5b506101c760005481565b34801561031057600080fd5b5061032461031f366004611146565b610bf5565b60405161014f98979695949392919061133a565b34801561034457600080fd5b506103586103533660046111a2565b610d64565b60405161014f9190611425565b3360009081526003602052604090205460ff1615156001146103ce5760405162461bcd60e51b815260206004820152601360248201527f43616c6c6572206973206e6f74206f776e65720000000000000000000000000060448201526064015b60405180910390fd5b600055565b3360009081526003602052604090205460ff1615156001146104375760405162461bcd60e51b815260206004820152601360248201527f43616c6c6572206973206e6f74206f776e65720000000000000000000000000060448201526064016103c5565b600090815260056020526040902080547fffffffffffffffffffffffffffffffffffffffffffffffffffffffffffffff00166001179055565b3360009081526003602052604090205460ff1615156001146104d45760405162461bcd60e51b815260206004820152601360248201527f43616c6c6572206973206e6f74206f776e65720000000000000000000000000060448201526064016103c5565b73ffffffffffffffffffffffffffffffffffffffff91909116600090815260036020526040902080547fffffffffffffffffffffffffffffffffffffffffffffffffffffffffffffff0016911515919091179055565b3360009081526003602052604090205460ff16151560011461058e5760405162461bcd60e51b815260206004820152601360248201527f43616c6c6572206973206e6f74206f776e65720000000000000000000000000060448201526064016103c5565b60405133904780156108fc02916000818181858888f193505050501580156105ba573d6000803e3d6000fd5b50565b6000818152600460205260408120548082036105dd575050600054919050565b92915050565b3360009081526003602052604090205460ff1615156001146106475760405162461bcd60e51b815260206004820152601360248201527f43616c6c6572206973206e6f74206f776e65720000000000000000000000000060448201526064016103c5565b60009182526004602052604090912055565b600080610665876105bd565b9050803410156106b75760405162461bcd60e51b815260206004820152601560248201527f5061796d656e74206973206e6f7420656e6f756768000000000000000000000060448201526064016103c5565b846107045760405162461bcd60e51b815260206004820181905260248201527f54657874206c656e6774682073686f756c64206265206174206c65617374203160448201526064016103c5565b61020085111561077c5760405162461bcd60e51b815260206004820152602c60248201527f54657874206c656e6774682073686f756c64206265206c657373207468616e2060448201527f6f7220657175616c20353132000000000000000000000000000000000000000060648201526084016103c5565b6006548711156107f45760405162461bcd60e51b815260206004820152603660248201527f596f752063616e206f6e6c7920637265617465642061206c6f636b207769746860448201527f206120747970652074686174277320616c6c6f7765640000000000000000000060648201526084016103c5565b6000871161086a5760405162461bcd60e51b815260206004820152603060248201527f596f752063616e206f6e6c7920637265617465206c6f636b732077697468206160448201527f207479706520746861742773203e20300000000000000000000000000000000060648201526084016103c5565b60008c8152600160205260409020600401541561088657600080fd5b6040518061010001604052808c8036038101906108a39190611607565b81526020016108b7368d90038d018d611607565b81526020016108cb368c90038c018c611607565b81526020016108df368b90038b018b611607565b815260200188815260200187878080601f016020809104026020016040519081016040528093929190818152602001838380828437600092018290525093855250505086151560208084019190915273ffffffffffffffffffffffffffffffffffffffff87166040938401528f8252600180825291839020845180518254828501519287015160ff9283167fffffffffffffffffffffffffffffffffffffffffffffffffffffffffffff0000928316176101009484168502177fffffffffffffffffffffffffffffffffffffffffffffffffffffffffff00ffff9081166201000092851683021786558987015180519887018054828a0151928c01519a8716908616179186168702919091178216988516830298909817909755888801518051600287018054838a0151938c0151928716908616179286168702929092178916908516830217905560608901518051600387018054838a015193909b01519186169a9094169990991790841690940293909317909516951602939093179091556080830151600483015560a08301518051610a809260058501920190611062565b5060c08201516006909101805460e09093015173ffffffffffffffffffffffffffffffffffffffff16610100027fffffffffffffffffffffff0000000000000000000000000000000000000000ff921515929092167fffffffffffffffffffffff0000000000000000000000000000000000000000009093169290921717905560028054906000610b10836116c9565b91905055508273ffffffffffffffffffffffffffffffffffffffff163373ffffffffffffffffffffffffffffffffffffffff167ff89d106996b5413ef569b54c0e60a38afd8c7c0dba4002d065524c194e1d11d38888604051610b74929190611701565b60405180910390a350999a9950505050505050505050565b3360009081526003602052604090205460ff161515600114610bf05760405162461bcd60e51b815260206004820152601360248201527f43616c6c6572206973206e6f74206f776e65720000000000000000000000000060448201526064016103c5565b600655565b600160208181526000928352604092839020835160608082018652825460ff808216845261010080830482168588015262010000928390048216858a015288518085018a529786015480831689528181048316898901528390048216888a015288518085018a52600287015480841682528281048416828a01528490048316818b015289519485018a526003870154808416865291820483169785019790975291909104169581019590955260048201546005830180549296939192610cba9061174e565b80601f0160208091040260200160405190810160405280929190818152602001828054610ce69061174e565b8015610d335780601f10610d0857610100808354040283529160200191610d33565b820191906000526020600020905b815481529060010190602001808311610d1657829003601f168201915b5050506006909301549192505060ff81169073ffffffffffffffffffffffffffffffffffffffff6101009091041688565b606060008267ffffffffffffffff811115610d8157610d816115c7565b604051908082528060200260200182016040528015610e6957816020015b604080516101608101825260006101008201818152610120830182905261014083018290528252825160608082018552828252602080830184905282860184905280850192909252845180820186528381528083018490528086018490528486015284518082018652838152808301849052948501839052808401949094526080830182905260a083019390935260c0820181905260e082015282527fffffffffffffffffffffffffffffffffffffffffffffffffffffffffffffffff909201910181610d9f5790505b50905060005b815181101561105a5760016000610e86878461179b565b81526020808201929092526040908101600020815161016081018352815460ff808216610100808501918252808404831661012086015262010000938490048316610140860152908452855160608181018852600187015480851683528381048516838b01528590048416828901528589019190915286518082018852600287015480851682528381048516828b01528590048416818901528588015286518082018852600387015480851682529283048416988101989098529290041693850193909352918201929092526004820154608082015260058201805491929160a084019190610f749061174e565b80601f0160208091040260200160405190810160405280929190818152602001828054610fa09061174e565b8015610fed5780601f10610fc257610100808354040283529160200191610fed565b820191906000526020600020905b815481529060010190602001808311610fd057829003601f168201915b50505091835250506006919091015460ff811615156020830152610100900473ffffffffffffffffffffffffffffffffffffffff16604090910152825183908390811061103c5761103c6117b3565b60200260200101819052508080611052906116c9565b915050610e6f565b509392505050565b82805461106e9061174e565b90600052602060002090601f01602090048101928261109057600085556110d6565b82601f106110a957805160ff19168380011785556110d6565b828001600101855582156110d6579182015b828111156110d65782518255916020019190600101906110bb565b506110e29291506110e6565b5090565b5b808211156110e257600081556001016110e7565b803573ffffffffffffffffffffffffffffffffffffffff8116811461111f57600080fd5b919050565b60006020828403121561113657600080fd5b61113f826110fb565b9392505050565b60006020828403121561115857600080fd5b5035919050565b8035801515811461111f57600080fd5b6000806040838503121561118257600080fd5b61118b836110fb565b91506111996020840161115f565b90509250929050565b600080604083850312156111b557600080fd5b50508035926020909101359150565b6000606082840312156111d657600080fd5b50919050565b6000806000806000806000806000806102208b8d0312156111fc57600080fd5b8a35995061120d8c60208d016111c4565b985061121c8c60808d016111c4565b975061122b8c60e08d016111c4565b965061123b8c6101408d016111c4565b95506101a08b013594506101c08b013567ffffffffffffffff8082111561126157600080fd5b818d0191508d601f83011261127557600080fd5b81358181111561128457600080fd5b8e602082850101111561129657600080fd5b6020830196508095505050506112af6101e08c0161115f565b91506112be6102008c016110fb565b90509295989b9194979a5092959850565b6000815180845260005b818110156112f5576020818501810151868301820152016112d9565b81811115611307576000602083870101525b50601f017fffffffffffffffffffffffffffffffffffffffffffffffffffffffffffffffe0169290920160200192915050565b6000610200611369838c60ff815116825260ff602082015116602083015260ff60408201511660408301525050565b895160ff908116606085015260208b01518116608085015260408b01511660a0840152885160ff90811660c085015260208a0151811660e085015260408a015116610100840152875160ff9081166101208501526020890151811661014085015260408901511661016084015286610180840152806101a08401526113f0818401876112cf565b9415156101c0840152505073ffffffffffffffffffffffffffffffffffffffff919091166101e0909101529695505050505050565b60006020808301818452808551808352604092508286019150828160051b87010184880160005b838110156115b9577fffffffffffffffffffffffffffffffffffffffffffffffffffffffffffffffc089840301855281516102006114ab85835160ff815116825260ff602082015116602083015260ff60408201511660408301525050565b8882015160606114dd8188018360ff815116825260ff602082015116602083015260ff60408201511660408301525050565b89840151915060c06115118189018460ff815116825260ff602082015116602083015260ff60408201511660408301525050565b84820151805160ff9081166101208b0152602082015181166101408b01526040820151166101608a01529250608085015161018089015260a08501519250836101a0890152611562848901846112cf565b9350808501519250505061157b6101c087018215159052565b5060e082015191506115a66101e086018373ffffffffffffffffffffffffffffffffffffffff169052565b958801959350509086019060010161144c565b509098975050505050505050565b7f4e487b7100000000000000000000000000000000000000000000000000000000600052604160045260246000fd5b803560ff8116811461111f57600080fd5b60006060828403121561161957600080fd5b6040516060810181811067ffffffffffffffff82111715611663577f4e487b7100000000000000000000000000000000000000000000000000000000600052604160045260246000fd5b60405261166f836115f6565b815261167d602084016115f6565b602082015261168e604084016115f6565b60408201529392505050565b7f4e487b7100000000000000000000000000000000000000000000000000000000600052601160045260246000fd5b60007fffffffffffffffffffffffffffffffffffffffffffffffffffffffffffffffff82036116fa576116fa61169a565b5060010190565b60208152816020820152818360408301376000818301604090810191909152601f9092017fffffffffffffffffffffffffffffffffffffffffffffffffffffffffffffffe0160101919050565b600181811c9082168061176257607f821691505b6020821081036111d6577f4e487b7100000000000000000000000000000000000000000000000000000000600052602260045260246000fd5b600082198211156117ae576117ae61169a565b500190565b7f4e487b7100000000000000000000000000000000000000000000000000000000600052603260045260246000fdfea26469706673582212201484d436088e74bd0ebb6878b87cc3fef11b95a44ce1c789f9a971cdca8ac00964736f6c634300080d0033",
          "opcodes": "PUSH1 0x80 PUSH1 0x40 MSTORE CALLVALUE DUP1 ISZERO PUSH2 0x10 JUMPI PUSH1 0x0 DUP1 REVERT JUMPDEST POP PUSH7 0x2386F26FC10000 PUSH1 0x0 SWAP1 DUP2 SSTORE CALLER DUP2 MSTORE PUSH1 0x3 PUSH1 0x20 MSTORE PUSH1 0x40 SWAP1 KECCAK256 DUP1 SLOAD PUSH1 0xFF NOT AND PUSH1 0x1 OR SWAP1 SSTORE PUSH2 0x1818 DUP1 PUSH2 0x44 PUSH1 0x0 CODECOPY PUSH1 0x0 RETURN INVALID PUSH1 0x80 PUSH1 0x40 MSTORE PUSH1 0x4 CALLDATASIZE LT PUSH2 0x10E JUMPI PUSH1 0x0 CALLDATALOAD PUSH1 0xE0 SHR DUP1 PUSH4 0xC75CC6C3 GT PUSH2 0xA5 JUMPI DUP1 PUSH4 0xDEDB0443 GT PUSH2 0x74 JUMPI DUP1 PUSH4 0xEE843C7B GT PUSH2 0x59 JUMPI DUP1 PUSH4 0xEE843C7B EQ PUSH2 0x2EE JUMPI DUP1 PUSH4 0xF4DADC61 EQ PUSH2 0x304 JUMPI DUP1 PUSH4 0xF630C895 EQ PUSH2 0x338 JUMPI PUSH1 0x0 DUP1 REVERT JUMPDEST DUP1 PUSH4 0xDEDB0443 EQ PUSH2 0x2BB JUMPI DUP1 PUSH4 0xE632C00D EQ PUSH2 0x2CE JUMPI PUSH1 0x0 DUP1 REVERT JUMPDEST DUP1 PUSH4 0xC75CC6C3 EQ PUSH2 0x235 JUMPI DUP1 PUSH4 0xCB61F4AC EQ PUSH2 0x24B JUMPI DUP1 PUSH4 0xCBD87358 EQ PUSH2 0x26B JUMPI DUP1 PUSH4 0xDD8F6ACA EQ PUSH2 0x29B JUMPI PUSH1 0x0 DUP1 REVERT JUMPDEST DUP1 PUSH4 0x516C731C GT PUSH2 0xE1 JUMPI DUP1 PUSH4 0x516C731C EQ PUSH2 0x1D5 JUMPI DUP1 PUSH4 0x793CD71E EQ PUSH2 0x1F5 JUMPI DUP1 PUSH4 0x94493C43 EQ PUSH2 0x20A JUMPI DUP1 PUSH4 0x9B10B6F5 EQ PUSH2 0x21F JUMPI PUSH1 0x0 DUP1 REVERT JUMPDEST DUP1 PUSH4 0x22914A7 EQ PUSH2 0x113 JUMPI DUP1 PUSH4 0x297A4CAF EQ PUSH2 0x158 JUMPI DUP1 PUSH4 0x3A5F4FEE EQ PUSH2 0x17A JUMPI DUP1 PUSH4 0x3AFBCEA9 EQ PUSH2 0x19A JUMPI JUMPDEST PUSH1 0x0 DUP1 REVERT JUMPDEST CALLVALUE DUP1 ISZERO PUSH2 0x11F JUMPI PUSH1 0x0 DUP1 REVERT JUMPDEST POP PUSH2 0x143 PUSH2 0x12E CALLDATASIZE PUSH1 0x4 PUSH2 0x1124 JUMP JUMPDEST PUSH1 0x3 PUSH1 0x20 MSTORE PUSH1 0x0 SWAP1 DUP2 MSTORE PUSH1 0x40 SWAP1 KECCAK256 SLOAD PUSH1 0xFF AND DUP2 JUMP JUMPDEST PUSH1 0x40 MLOAD SWAP1 ISZERO ISZERO DUP2 MSTORE PUSH1 0x20 ADD JUMPDEST PUSH1 0x40 MLOAD DUP1 SWAP2 SUB SWAP1 RETURN JUMPDEST CALLVALUE DUP1 ISZERO PUSH2 0x164 JUMPI PUSH1 0x0 DUP1 REVERT JUMPDEST POP PUSH2 0x178 PUSH2 0x173 CALLDATASIZE PUSH1 0x4 PUSH2 0x1146 JUMP JUMPDEST PUSH2 0x365 JUMP JUMPDEST STOP JUMPDEST CALLVALUE DUP1 ISZERO PUSH2 0x186 JUMPI PUSH1 0x0 DUP1 REVERT JUMPDEST POP PUSH2 0x178 PUSH2 0x195 CALLDATASIZE PUSH1 0x4 PUSH2 0x1146 JUMP JUMPDEST PUSH2 0x3D3 JUMP JUMPDEST CALLVALUE DUP1 ISZERO PUSH2 0x1A6 JUMPI PUSH1 0x0 DUP1 REVERT JUMPDEST POP PUSH2 0x1C7 PUSH2 0x1B5 CALLDATASIZE PUSH1 0x4 PUSH2 0x1146 JUMP JUMPDEST PUSH1 0x4 PUSH1 0x20 MSTORE PUSH1 0x0 SWAP1 DUP2 MSTORE PUSH1 0x40 SWAP1 KECCAK256 SLOAD DUP2 JUMP JUMPDEST PUSH1 0x40 MLOAD SWAP1 DUP2 MSTORE PUSH1 0x20 ADD PUSH2 0x14F JUMP JUMPDEST CALLVALUE DUP1 ISZERO PUSH2 0x1E1 JUMPI PUSH1 0x0 DUP1 REVERT JUMPDEST POP PUSH2 0x178 PUSH2 0x1F0 CALLDATASIZE PUSH1 0x4 PUSH2 0x116F JUMP JUMPDEST PUSH2 0x470 JUMP JUMPDEST CALLVALUE DUP1 ISZERO PUSH2 0x201 JUMPI PUSH1 0x0 DUP1 REVERT JUMPDEST POP PUSH2 0x178 PUSH2 0x52A JUMP JUMPDEST CALLVALUE DUP1 ISZERO PUSH2 0x216 JUMPI PUSH1 0x0 DUP1 REVERT JUMPDEST POP PUSH1 0x2 SLOAD PUSH2 0x1C7 JUMP JUMPDEST CALLVALUE DUP1 ISZERO PUSH2 0x22B JUMPI PUSH1 0x0 DUP1 REVERT JUMPDEST POP PUSH2 0x1C7 PUSH1 0x2 SLOAD DUP2 JUMP JUMPDEST CALLVALUE DUP1 ISZERO PUSH2 0x241 JUMPI PUSH1 0x0 DUP1 REVERT JUMPDEST POP PUSH2 0x1C7 PUSH1 0x6 SLOAD DUP2 JUMP JUMPDEST CALLVALUE DUP1 ISZERO PUSH2 0x257 JUMPI PUSH1 0x0 DUP1 REVERT JUMPDEST POP PUSH2 0x1C7 PUSH2 0x266 CALLDATASIZE PUSH1 0x4 PUSH2 0x1146 JUMP JUMPDEST PUSH2 0x5BD JUMP JUMPDEST CALLVALUE DUP1 ISZERO PUSH2 0x277 JUMPI PUSH1 0x0 DUP1 REVERT JUMPDEST POP PUSH2 0x143 PUSH2 0x286 CALLDATASIZE PUSH1 0x4 PUSH2 0x1146 JUMP JUMPDEST PUSH1 0x5 PUSH1 0x20 MSTORE PUSH1 0x0 SWAP1 DUP2 MSTORE PUSH1 0x40 SWAP1 KECCAK256 SLOAD PUSH1 0xFF AND DUP2 JUMP JUMPDEST CALLVALUE DUP1 ISZERO PUSH2 0x2A7 JUMPI PUSH1 0x0 DUP1 REVERT JUMPDEST POP PUSH2 0x178 PUSH2 0x2B6 CALLDATASIZE PUSH1 0x4 PUSH2 0x11A2 JUMP JUMPDEST PUSH2 0x5E3 JUMP JUMPDEST PUSH2 0x1C7 PUSH2 0x2C9 CALLDATASIZE PUSH1 0x4 PUSH2 0x11DC JUMP JUMPDEST PUSH2 0x659 JUMP JUMPDEST CALLVALUE DUP1 ISZERO PUSH2 0x2DA JUMPI PUSH1 0x0 DUP1 REVERT JUMPDEST POP PUSH2 0x178 PUSH2 0x2E9 CALLDATASIZE PUSH1 0x4 PUSH2 0x1146 JUMP JUMPDEST PUSH2 0xB8C JUMP JUMPDEST CALLVALUE DUP1 ISZERO PUSH2 0x2FA JUMPI PUSH1 0x0 DUP1 REVERT JUMPDEST POP PUSH2 0x1C7 PUSH1 0x0 SLOAD DUP2 JUMP JUMPDEST CALLVALUE DUP1 ISZERO PUSH2 0x310 JUMPI PUSH1 0x0 DUP1 REVERT JUMPDEST POP PUSH2 0x324 PUSH2 0x31F CALLDATASIZE PUSH1 0x4 PUSH2 0x1146 JUMP JUMPDEST PUSH2 0xBF5 JUMP JUMPDEST PUSH1 0x40 MLOAD PUSH2 0x14F SWAP9 SWAP8 SWAP7 SWAP6 SWAP5 SWAP4 SWAP3 SWAP2 SWAP1 PUSH2 0x133A JUMP JUMPDEST CALLVALUE DUP1 ISZERO PUSH2 0x344 JUMPI PUSH1 0x0 DUP1 REVERT JUMPDEST POP PUSH2 0x358 PUSH2 0x353 CALLDATASIZE PUSH1 0x4 PUSH2 0x11A2 JUMP JUMPDEST PUSH2 0xD64 JUMP JUMPDEST PUSH1 0x40 MLOAD PUSH2 0x14F SWAP2 SWAP1 PUSH2 0x1425 JUMP JUMPDEST CALLER PUSH1 0x0 SWAP1 DUP2 MSTORE PUSH1 0x3 PUSH1 0x20 MSTORE PUSH1 0x40 SWAP1 KECCAK256 SLOAD PUSH1 0xFF AND ISZERO ISZERO PUSH1 0x1 EQ PUSH2 0x3CE JUMPI PUSH1 0x40 MLOAD PUSH3 0x461BCD PUSH1 0xE5 SHL DUP2 MSTORE PUSH1 0x20 PUSH1 0x4 DUP3 ADD MSTORE PUSH1 0x13 PUSH1 0x24 DUP3 ADD MSTORE PUSH32 0x43616C6C6572206973206E6F74206F776E657200000000000000000000000000 PUSH1 0x44 DUP3 ADD MSTORE PUSH1 0x64 ADD JUMPDEST PUSH1 0x40 MLOAD DUP1 SWAP2 SUB SWAP1 REVERT JUMPDEST PUSH1 0x0 SSTORE JUMP JUMPDEST CALLER PUSH1 0x0 SWAP1 DUP2 MSTORE PUSH1 0x3 PUSH1 0x20 MSTORE PUSH1 0x40 SWAP1 KECCAK256 SLOAD PUSH1 0xFF AND ISZERO ISZERO PUSH1 0x1 EQ PUSH2 0x437 JUMPI PUSH1 0x40 MLOAD PUSH3 0x461BCD PUSH1 0xE5 SHL DUP2 MSTORE PUSH1 0x20 PUSH1 0x4 DUP3 ADD MSTORE PUSH1 0x13 PUSH1 0x24 DUP3 ADD MSTORE PUSH32 0x43616C6C6572206973206E6F74206F776E657200000000000000000000000000 PUSH1 0x44 DUP3 ADD MSTORE PUSH1 0x64 ADD PUSH2 0x3C5 JUMP JUMPDEST PUSH1 0x0 SWAP1 DUP2 MSTORE PUSH1 0x5 PUSH1 0x20 MSTORE PUSH1 0x40 SWAP1 KECCAK256 DUP1 SLOAD PUSH32 0xFFFFFFFFFFFFFFFFFFFFFFFFFFFFFFFFFFFFFFFFFFFFFFFFFFFFFFFFFFFFFF00 AND PUSH1 0x1 OR SWAP1 SSTORE JUMP JUMPDEST CALLER PUSH1 0x0 SWAP1 DUP2 MSTORE PUSH1 0x3 PUSH1 0x20 MSTORE PUSH1 0x40 SWAP1 KECCAK256 SLOAD PUSH1 0xFF AND ISZERO ISZERO PUSH1 0x1 EQ PUSH2 0x4D4 JUMPI PUSH1 0x40 MLOAD PUSH3 0x461BCD PUSH1 0xE5 SHL DUP2 MSTORE PUSH1 0x20 PUSH1 0x4 DUP3 ADD MSTORE PUSH1 0x13 PUSH1 0x24 DUP3 ADD MSTORE PUSH32 0x43616C6C6572206973206E6F74206F776E657200000000000000000000000000 PUSH1 0x44 DUP3 ADD MSTORE PUSH1 0x64 ADD PUSH2 0x3C5 JUMP JUMPDEST PUSH20 0xFFFFFFFFFFFFFFFFFFFFFFFFFFFFFFFFFFFFFFFF SWAP2 SWAP1 SWAP2 AND PUSH1 0x0 SWAP1 DUP2 MSTORE PUSH1 0x3 PUSH1 0x20 MSTORE PUSH1 0x40 SWAP1 KECCAK256 DUP1 SLOAD PUSH32 0xFFFFFFFFFFFFFFFFFFFFFFFFFFFFFFFFFFFFFFFFFFFFFFFFFFFFFFFFFFFFFF00 AND SWAP2 ISZERO ISZERO SWAP2 SWAP1 SWAP2 OR SWAP1 SSTORE JUMP JUMPDEST CALLER PUSH1 0x0 SWAP1 DUP2 MSTORE PUSH1 0x3 PUSH1 0x20 MSTORE PUSH1 0x40 SWAP1 KECCAK256 SLOAD PUSH1 0xFF AND ISZERO ISZERO PUSH1 0x1 EQ PUSH2 0x58E JUMPI PUSH1 0x40 MLOAD PUSH3 0x461BCD PUSH1 0xE5 SHL DUP2 MSTORE PUSH1 0x20 PUSH1 0x4 DUP3 ADD MSTORE PUSH1 0x13 PUSH1 0x24 DUP3 ADD MSTORE PUSH32 0x43616C6C6572206973206E6F74206F776E657200000000000000000000000000 PUSH1 0x44 DUP3 ADD MSTORE PUSH1 0x64 ADD PUSH2 0x3C5 JUMP JUMPDEST PUSH1 0x40 MLOAD CALLER SWAP1 SELFBALANCE DUP1 ISZERO PUSH2 0x8FC MUL SWAP2 PUSH1 0x0 DUP2 DUP2 DUP2 DUP6 DUP9 DUP9 CALL SWAP4 POP POP POP POP ISZERO DUP1 ISZERO PUSH2 0x5BA JUMPI RETURNDATASIZE PUSH1 0x0 DUP1 RETURNDATACOPY RETURNDATASIZE PUSH1 0x0 REVERT JUMPDEST POP JUMP JUMPDEST PUSH1 0x0 DUP2 DUP2 MSTORE PUSH1 0x4 PUSH1 0x20 MSTORE PUSH1 0x40 DUP2 KECCAK256 SLOAD DUP1 DUP3 SUB PUSH2 0x5DD JUMPI POP POP PUSH1 0x0 SLOAD SWAP2 SWAP1 POP JUMP JUMPDEST SWAP3 SWAP2 POP POP JUMP JUMPDEST CALLER PUSH1 0x0 SWAP1 DUP2 MSTORE PUSH1 0x3 PUSH1 0x20 MSTORE PUSH1 0x40 SWAP1 KECCAK256 SLOAD PUSH1 0xFF AND ISZERO ISZERO PUSH1 0x1 EQ PUSH2 0x647 JUMPI PUSH1 0x40 MLOAD PUSH3 0x461BCD PUSH1 0xE5 SHL DUP2 MSTORE PUSH1 0x20 PUSH1 0x4 DUP3 ADD MSTORE PUSH1 0x13 PUSH1 0x24 DUP3 ADD MSTORE PUSH32 0x43616C6C6572206973206E6F74206F776E657200000000000000000000000000 PUSH1 0x44 DUP3 ADD MSTORE PUSH1 0x64 ADD PUSH2 0x3C5 JUMP JUMPDEST PUSH1 0x0 SWAP2 DUP3 MSTORE PUSH1 0x4 PUSH1 0x20 MSTORE PUSH1 0x40 SWAP1 SWAP2 KECCAK256 SSTORE JUMP JUMPDEST PUSH1 0x0 DUP1 PUSH2 0x665 DUP8 PUSH2 0x5BD JUMP JUMPDEST SWAP1 POP DUP1 CALLVALUE LT ISZERO PUSH2 0x6B7 JUMPI PUSH1 0x40 MLOAD PUSH3 0x461BCD PUSH1 0xE5 SHL DUP2 MSTORE PUSH1 0x20 PUSH1 0x4 DUP3 ADD MSTORE PUSH1 0x15 PUSH1 0x24 DUP3 ADD MSTORE PUSH32 0x5061796D656E74206973206E6F7420656E6F7567680000000000000000000000 PUSH1 0x44 DUP3 ADD MSTORE PUSH1 0x64 ADD PUSH2 0x3C5 JUMP JUMPDEST DUP5 PUSH2 0x704 JUMPI PUSH1 0x40 MLOAD PUSH3 0x461BCD PUSH1 0xE5 SHL DUP2 MSTORE PUSH1 0x20 PUSH1 0x4 DUP3 ADD DUP2 SWAP1 MSTORE PUSH1 0x24 DUP3 ADD MSTORE PUSH32 0x54657874206C656E6774682073686F756C64206265206174206C656173742031 PUSH1 0x44 DUP3 ADD MSTORE PUSH1 0x64 ADD PUSH2 0x3C5 JUMP JUMPDEST PUSH2 0x200 DUP6 GT ISZERO PUSH2 0x77C JUMPI PUSH1 0x40 MLOAD PUSH3 0x461BCD PUSH1 0xE5 SHL DUP2 MSTORE PUSH1 0x20 PUSH1 0x4 DUP3 ADD MSTORE PUSH1 0x2C PUSH1 0x24 DUP3 ADD MSTORE PUSH32 0x54657874206C656E6774682073686F756C64206265206C657373207468616E20 PUSH1 0x44 DUP3 ADD MSTORE PUSH32 0x6F7220657175616C203531320000000000000000000000000000000000000000 PUSH1 0x64 DUP3 ADD MSTORE PUSH1 0x84 ADD PUSH2 0x3C5 JUMP JUMPDEST PUSH1 0x6 SLOAD DUP8 GT ISZERO PUSH2 0x7F4 JUMPI PUSH1 0x40 MLOAD PUSH3 0x461BCD PUSH1 0xE5 SHL DUP2 MSTORE PUSH1 0x20 PUSH1 0x4 DUP3 ADD MSTORE PUSH1 0x36 PUSH1 0x24 DUP3 ADD MSTORE PUSH32 0x596F752063616E206F6E6C7920637265617465642061206C6F636B2077697468 PUSH1 0x44 DUP3 ADD MSTORE PUSH32 0x206120747970652074686174277320616C6C6F77656400000000000000000000 PUSH1 0x64 DUP3 ADD MSTORE PUSH1 0x84 ADD PUSH2 0x3C5 JUMP JUMPDEST PUSH1 0x0 DUP8 GT PUSH2 0x86A JUMPI PUSH1 0x40 MLOAD PUSH3 0x461BCD PUSH1 0xE5 SHL DUP2 MSTORE PUSH1 0x20 PUSH1 0x4 DUP3 ADD MSTORE PUSH1 0x30 PUSH1 0x24 DUP3 ADD MSTORE PUSH32 0x596F752063616E206F6E6C7920637265617465206C6F636B7320776974682061 PUSH1 0x44 DUP3 ADD MSTORE PUSH32 0x207479706520746861742773203E203000000000000000000000000000000000 PUSH1 0x64 DUP3 ADD MSTORE PUSH1 0x84 ADD PUSH2 0x3C5 JUMP JUMPDEST PUSH1 0x0 DUP13 DUP2 MSTORE PUSH1 0x1 PUSH1 0x20 MSTORE PUSH1 0x40 SWAP1 KECCAK256 PUSH1 0x4 ADD SLOAD ISZERO PUSH2 0x886 JUMPI PUSH1 0x0 DUP1 REVERT JUMPDEST PUSH1 0x40 MLOAD DUP1 PUSH2 0x100 ADD PUSH1 0x40 MSTORE DUP1 DUP13 DUP1 CALLDATASIZE SUB DUP2 ADD SWAP1 PUSH2 0x8A3 SWAP2 SWAP1 PUSH2 0x1607 JUMP JUMPDEST DUP2 MSTORE PUSH1 0x20 ADD PUSH2 0x8B7 CALLDATASIZE DUP14 SWAP1 SUB DUP14 ADD DUP14 PUSH2 0x1607 JUMP JUMPDEST DUP2 MSTORE PUSH1 0x20 ADD PUSH2 0x8CB CALLDATASIZE DUP13 SWAP1 SUB DUP13 ADD DUP13 PUSH2 0x1607 JUMP JUMPDEST DUP2 MSTORE PUSH1 0x20 ADD PUSH2 0x8DF CALLDATASIZE DUP12 SWAP1 SUB DUP12 ADD DUP12 PUSH2 0x1607 JUMP JUMPDEST DUP2 MSTORE PUSH1 0x20 ADD DUP9 DUP2 MSTORE PUSH1 0x20 ADD DUP8 DUP8 DUP1 DUP1 PUSH1 0x1F ADD PUSH1 0x20 DUP1 SWAP2 DIV MUL PUSH1 0x20 ADD PUSH1 0x40 MLOAD SWAP1 DUP2 ADD PUSH1 0x40 MSTORE DUP1 SWAP4 SWAP3 SWAP2 SWAP1 DUP2 DUP2 MSTORE PUSH1 0x20 ADD DUP4 DUP4 DUP1 DUP3 DUP5 CALLDATACOPY PUSH1 0x0 SWAP3 ADD DUP3 SWAP1 MSTORE POP SWAP4 DUP6 MSTORE POP POP POP DUP7 ISZERO ISZERO PUSH1 0x20 DUP1 DUP5 ADD SWAP2 SWAP1 SWAP2 MSTORE PUSH20 0xFFFFFFFFFFFFFFFFFFFFFFFFFFFFFFFFFFFFFFFF DUP8 AND PUSH1 0x40 SWAP4 DUP5 ADD MSTORE DUP16 DUP3 MSTORE PUSH1 0x1 DUP1 DUP3 MSTORE SWAP2 DUP4 SWAP1 KECCAK256 DUP5 MLOAD DUP1 MLOAD DUP3 SLOAD DUP3 DUP6 ADD MLOAD SWAP3 DUP8 ADD MLOAD PUSH1 0xFF SWAP3 DUP4 AND PUSH32 0xFFFFFFFFFFFFFFFFFFFFFFFFFFFFFFFFFFFFFFFFFFFFFFFFFFFFFFFFFFFF0000 SWAP3 DUP4 AND OR PUSH2 0x100 SWAP5 DUP5 AND DUP6 MUL OR PUSH32 0xFFFFFFFFFFFFFFFFFFFFFFFFFFFFFFFFFFFFFFFFFFFFFFFFFFFFFFFFFF00FFFF SWAP1 DUP2 AND PUSH3 0x10000 SWAP3 DUP6 AND DUP4 MUL OR DUP7 SSTORE DUP10 DUP8 ADD MLOAD DUP1 MLOAD SWAP9 DUP8 ADD DUP1 SLOAD DUP3 DUP11 ADD MLOAD SWAP3 DUP13 ADD MLOAD SWAP11 DUP8 AND SWAP1 DUP7 AND OR SWAP2 DUP7 AND DUP8 MUL SWAP2 SWAP1 SWAP2 OR DUP3 AND SWAP9 DUP6 AND DUP4 MUL SWAP9 SWAP1 SWAP9 OR SWAP1 SWAP8 SSTORE DUP9 DUP9 ADD MLOAD DUP1 MLOAD PUSH1 0x2 DUP8 ADD DUP1 SLOAD DUP4 DUP11 ADD MLOAD SWAP4 DUP13 ADD MLOAD SWAP3 DUP8 AND SWAP1 DUP7 AND OR SWAP3 DUP7 AND DUP8 MUL SWAP3 SWAP1 SWAP3 OR DUP10 AND SWAP1 DUP6 AND DUP4 MUL OR SWAP1 SSTORE PUSH1 0x60 DUP10 ADD MLOAD DUP1 MLOAD PUSH1 0x3 DUP8 ADD DUP1 SLOAD DUP4 DUP11 ADD MLOAD SWAP4 SWAP1 SWAP12 ADD MLOAD SWAP2 DUP7 AND SWAP11 SWAP1 SWAP5 AND SWAP10 SWAP1 SWAP10 OR SWAP1 DUP5 AND SWAP1 SWAP5 MUL SWAP4 SWAP1 SWAP4 OR SWAP1 SWAP6 AND SWAP6 AND MUL SWAP4 SWAP1 SWAP4 OR SWAP1 SWAP2 SSTORE PUSH1 0x80 DUP4 ADD MLOAD PUSH1 0x4 DUP4 ADD SSTORE PUSH1 0xA0 DUP4 ADD MLOAD DUP1 MLOAD PUSH2 0xA80 SWAP3 PUSH1 0x5 DUP6 ADD SWAP3 ADD SWAP1 PUSH2 0x1062 JUMP JUMPDEST POP PUSH1 0xC0 DUP3 ADD MLOAD PUSH1 0x6 SWAP1 SWAP2 ADD DUP1 SLOAD PUSH1 0xE0 SWAP1 SWAP4 ADD MLOAD PUSH20 0xFFFFFFFFFFFFFFFFFFFFFFFFFFFFFFFFFFFFFFFF AND PUSH2 0x100 MUL PUSH32 0xFFFFFFFFFFFFFFFFFFFFFF0000000000000000000000000000000000000000FF SWAP3 ISZERO ISZERO SWAP3 SWAP1 SWAP3 AND PUSH32 0xFFFFFFFFFFFFFFFFFFFFFF000000000000000000000000000000000000000000 SWAP1 SWAP4 AND SWAP3 SWAP1 SWAP3 OR OR SWAP1 SSTORE PUSH1 0x2 DUP1 SLOAD SWAP1 PUSH1 0x0 PUSH2 0xB10 DUP4 PUSH2 0x16C9 JUMP JUMPDEST SWAP2 SWAP1 POP SSTORE POP DUP3 PUSH20 0xFFFFFFFFFFFFFFFFFFFFFFFFFFFFFFFFFFFFFFFF AND CALLER PUSH20 0xFFFFFFFFFFFFFFFFFFFFFFFFFFFFFFFFFFFFFFFF AND PUSH32 0xF89D106996B5413EF569B54C0E60A38AFD8C7C0DBA4002D065524C194E1D11D3 DUP9 DUP9 PUSH1 0x40 MLOAD PUSH2 0xB74 SWAP3 SWAP2 SWAP1 PUSH2 0x1701 JUMP JUMPDEST PUSH1 0x40 MLOAD DUP1 SWAP2 SUB SWAP1 LOG3 POP SWAP10 SWAP11 SWAP10 POP POP POP POP POP POP POP POP POP POP JUMP JUMPDEST CALLER PUSH1 0x0 SWAP1 DUP2 MSTORE PUSH1 0x3 PUSH1 0x20 MSTORE PUSH1 0x40 SWAP1 KECCAK256 SLOAD PUSH1 0xFF AND ISZERO ISZERO PUSH1 0x1 EQ PUSH2 0xBF0 JUMPI PUSH1 0x40 MLOAD PUSH3 0x461BCD PUSH1 0xE5 SHL DUP2 MSTORE PUSH1 0x20 PUSH1 0x4 DUP3 ADD MSTORE PUSH1 0x13 PUSH1 0x24 DUP3 ADD MSTORE PUSH32 0x43616C6C6572206973206E6F74206F776E657200000000000000000000000000 PUSH1 0x44 DUP3 ADD MSTORE PUSH1 0x64 ADD PUSH2 0x3C5 JUMP JUMPDEST PUSH1 0x6 SSTORE JUMP JUMPDEST PUSH1 0x1 PUSH1 0x20 DUP2 DUP2 MSTORE PUSH1 0x0 SWAP3 DUP4 MSTORE PUSH1 0x40 SWAP3 DUP4 SWAP1 KECCAK256 DUP4 MLOAD PUSH1 0x60 DUP1 DUP3 ADD DUP7 MSTORE DUP3 SLOAD PUSH1 0xFF DUP1 DUP3 AND DUP5 MSTORE PUSH2 0x100 DUP1 DUP4 DIV DUP3 AND DUP6 DUP9 ADD MSTORE PUSH3 0x10000 SWAP3 DUP4 SWAP1 DIV DUP3 AND DUP6 DUP11 ADD MSTORE DUP9 MLOAD DUP1 DUP6 ADD DUP11 MSTORE SWAP8 DUP7 ADD SLOAD DUP1 DUP4 AND DUP10 MSTORE DUP2 DUP2 DIV DUP4 AND DUP10 DUP10 ADD MSTORE DUP4 SWAP1 DIV DUP3 AND DUP9 DUP11 ADD MSTORE DUP9 MLOAD DUP1 DUP6 ADD DUP11 MSTORE PUSH1 0x2 DUP8 ADD SLOAD DUP1 DUP5 AND DUP3 MSTORE DUP3 DUP2 DIV DUP5 AND DUP3 DUP11 ADD MSTORE DUP5 SWAP1 DIV DUP4 AND DUP2 DUP12 ADD MSTORE DUP10 MLOAD SWAP5 DUP6 ADD DUP11 MSTORE PUSH1 0x3 DUP8 ADD SLOAD DUP1 DUP5 AND DUP7 MSTORE SWAP2 DUP3 DIV DUP4 AND SWAP8 DUP6 ADD SWAP8 SWAP1 SWAP8 MSTORE SWAP2 SWAP1 SWAP2 DIV AND SWAP6 DUP2 ADD SWAP6 SWAP1 SWAP6 MSTORE PUSH1 0x4 DUP3 ADD SLOAD PUSH1 0x5 DUP4 ADD DUP1 SLOAD SWAP3 SWAP7 SWAP4 SWAP2 SWAP3 PUSH2 0xCBA SWAP1 PUSH2 0x174E JUMP JUMPDEST DUP1 PUSH1 0x1F ADD PUSH1 0x20 DUP1 SWAP2 DIV MUL PUSH1 0x20 ADD PUSH1 0x40 MLOAD SWAP1 DUP2 ADD PUSH1 0x40 MSTORE DUP1 SWAP3 SWAP2 SWAP1 DUP2 DUP2 MSTORE PUSH1 0x20 ADD DUP3 DUP1 SLOAD PUSH2 0xCE6 SWAP1 PUSH2 0x174E JUMP JUMPDEST DUP1 ISZERO PUSH2 0xD33 JUMPI DUP1 PUSH1 0x1F LT PUSH2 0xD08 JUMPI PUSH2 0x100 DUP1 DUP4 SLOAD DIV MUL DUP4 MSTORE SWAP2 PUSH1 0x20 ADD SWAP2 PUSH2 0xD33 JUMP JUMPDEST DUP3 ADD SWAP2 SWAP1 PUSH1 0x0 MSTORE PUSH1 0x20 PUSH1 0x0 KECCAK256 SWAP1 JUMPDEST DUP2 SLOAD DUP2 MSTORE SWAP1 PUSH1 0x1 ADD SWAP1 PUSH1 0x20 ADD DUP1 DUP4 GT PUSH2 0xD16 JUMPI DUP3 SWAP1 SUB PUSH1 0x1F AND DUP3 ADD SWAP2 JUMPDEST POP POP POP PUSH1 0x6 SWAP1 SWAP4 ADD SLOAD SWAP2 SWAP3 POP POP PUSH1 0xFF DUP2 AND SWAP1 PUSH20 0xFFFFFFFFFFFFFFFFFFFFFFFFFFFFFFFFFFFFFFFF PUSH2 0x100 SWAP1 SWAP2 DIV AND DUP9 JUMP JUMPDEST PUSH1 0x60 PUSH1 0x0 DUP3 PUSH8 0xFFFFFFFFFFFFFFFF DUP2 GT ISZERO PUSH2 0xD81 JUMPI PUSH2 0xD81 PUSH2 0x15C7 JUMP JUMPDEST PUSH1 0x40 MLOAD SWAP1 DUP1 DUP3 MSTORE DUP1 PUSH1 0x20 MUL PUSH1 0x20 ADD DUP3 ADD PUSH1 0x40 MSTORE DUP1 ISZERO PUSH2 0xE69 JUMPI DUP2 PUSH1 0x20 ADD JUMPDEST PUSH1 0x40 DUP1 MLOAD PUSH2 0x160 DUP2 ADD DUP3 MSTORE PUSH1 0x0 PUSH2 0x100 DUP3 ADD DUP2 DUP2 MSTORE PUSH2 0x120 DUP4 ADD DUP3 SWAP1 MSTORE PUSH2 0x140 DUP4 ADD DUP3 SWAP1 MSTORE DUP3 MSTORE DUP3 MLOAD PUSH1 0x60 DUP1 DUP3 ADD DUP6 MSTORE DUP3 DUP3 MSTORE PUSH1 0x20 DUP1 DUP4 ADD DUP5 SWAP1 MSTORE DUP3 DUP7 ADD DUP5 SWAP1 MSTORE DUP1 DUP6 ADD SWAP3 SWAP1 SWAP3 MSTORE DUP5 MLOAD DUP1 DUP3 ADD DUP7 MSTORE DUP4 DUP2 MSTORE DUP1 DUP4 ADD DUP5 SWAP1 MSTORE DUP1 DUP7 ADD DUP5 SWAP1 MSTORE DUP5 DUP7 ADD MSTORE DUP5 MLOAD DUP1 DUP3 ADD DUP7 MSTORE DUP4 DUP2 MSTORE DUP1 DUP4 ADD DUP5 SWAP1 MSTORE SWAP5 DUP6 ADD DUP4 SWAP1 MSTORE DUP1 DUP5 ADD SWAP5 SWAP1 SWAP5 MSTORE PUSH1 0x80 DUP4 ADD DUP3 SWAP1 MSTORE PUSH1 0xA0 DUP4 ADD SWAP4 SWAP1 SWAP4 MSTORE PUSH1 0xC0 DUP3 ADD DUP2 SWAP1 MSTORE PUSH1 0xE0 DUP3 ADD MSTORE DUP3 MSTORE PUSH32 0xFFFFFFFFFFFFFFFFFFFFFFFFFFFFFFFFFFFFFFFFFFFFFFFFFFFFFFFFFFFFFFFF SWAP1 SWAP3 ADD SWAP2 ADD DUP2 PUSH2 0xD9F JUMPI SWAP1 POP JUMPDEST POP SWAP1 POP PUSH1 0x0 JUMPDEST DUP2 MLOAD DUP2 LT ISZERO PUSH2 0x105A JUMPI PUSH1 0x1 PUSH1 0x0 PUSH2 0xE86 DUP8 DUP5 PUSH2 0x179B JUMP JUMPDEST DUP2 MSTORE PUSH1 0x20 DUP1 DUP3 ADD SWAP3 SWAP1 SWAP3 MSTORE PUSH1 0x40 SWAP1 DUP2 ADD PUSH1 0x0 KECCAK256 DUP2 MLOAD PUSH2 0x160 DUP2 ADD DUP4 MSTORE DUP2 SLOAD PUSH1 0xFF DUP1 DUP3 AND PUSH2 0x100 DUP1 DUP6 ADD SWAP2 DUP3 MSTORE DUP1 DUP5 DIV DUP4 AND PUSH2 0x120 DUP7 ADD MSTORE PUSH3 0x10000 SWAP4 DUP5 SWAP1 DIV DUP4 AND PUSH2 0x140 DUP7 ADD MSTORE SWAP1 DUP5 MSTORE DUP6 MLOAD PUSH1 0x60 DUP2 DUP2 ADD DUP9 MSTORE PUSH1 0x1 DUP8 ADD SLOAD DUP1 DUP6 AND DUP4 MSTORE DUP4 DUP2 DIV DUP6 AND DUP4 DUP12 ADD MSTORE DUP6 SWAP1 DIV DUP5 AND DUP3 DUP10 ADD MSTORE DUP6 DUP10 ADD SWAP2 SWAP1 SWAP2 MSTORE DUP7 MLOAD DUP1 DUP3 ADD DUP9 MSTORE PUSH1 0x2 DUP8 ADD SLOAD DUP1 DUP6 AND DUP3 MSTORE DUP4 DUP2 DIV DUP6 AND DUP3 DUP12 ADD MSTORE DUP6 SWAP1 DIV DUP5 AND DUP2 DUP10 ADD MSTORE DUP6 DUP9 ADD MSTORE DUP7 MLOAD DUP1 DUP3 ADD DUP9 MSTORE PUSH1 0x3 DUP8 ADD SLOAD DUP1 DUP6 AND DUP3 MSTORE SWAP3 DUP4 DIV DUP5 AND SWAP9 DUP2 ADD SWAP9 SWAP1 SWAP9 MSTORE SWAP3 SWAP1 DIV AND SWAP4 DUP6 ADD SWAP4 SWAP1 SWAP4 MSTORE SWAP2 DUP3 ADD SWAP3 SWAP1 SWAP3 MSTORE PUSH1 0x4 DUP3 ADD SLOAD PUSH1 0x80 DUP3 ADD MSTORE PUSH1 0x5 DUP3 ADD DUP1 SLOAD SWAP2 SWAP3 SWAP2 PUSH1 0xA0 DUP5 ADD SWAP2 SWAP1 PUSH2 0xF74 SWAP1 PUSH2 0x174E JUMP JUMPDEST DUP1 PUSH1 0x1F ADD PUSH1 0x20 DUP1 SWAP2 DIV MUL PUSH1 0x20 ADD PUSH1 0x40 MLOAD SWAP1 DUP2 ADD PUSH1 0x40 MSTORE DUP1 SWAP3 SWAP2 SWAP1 DUP2 DUP2 MSTORE PUSH1 0x20 ADD DUP3 DUP1 SLOAD PUSH2 0xFA0 SWAP1 PUSH2 0x174E JUMP JUMPDEST DUP1 ISZERO PUSH2 0xFED JUMPI DUP1 PUSH1 0x1F LT PUSH2 0xFC2 JUMPI PUSH2 0x100 DUP1 DUP4 SLOAD DIV MUL DUP4 MSTORE SWAP2 PUSH1 0x20 ADD SWAP2 PUSH2 0xFED JUMP JUMPDEST DUP3 ADD SWAP2 SWAP1 PUSH1 0x0 MSTORE PUSH1 0x20 PUSH1 0x0 KECCAK256 SWAP1 JUMPDEST DUP2 SLOAD DUP2 MSTORE SWAP1 PUSH1 0x1 ADD SWAP1 PUSH1 0x20 ADD DUP1 DUP4 GT PUSH2 0xFD0 JUMPI DUP3 SWAP1 SUB PUSH1 0x1F AND DUP3 ADD SWAP2 JUMPDEST POP POP POP SWAP2 DUP4 MSTORE POP POP PUSH1 0x6 SWAP2 SWAP1 SWAP2 ADD SLOAD PUSH1 0xFF DUP2 AND ISZERO ISZERO PUSH1 0x20 DUP4 ADD MSTORE PUSH2 0x100 SWAP1 DIV PUSH20 0xFFFFFFFFFFFFFFFFFFFFFFFFFFFFFFFFFFFFFFFF AND PUSH1 0x40 SWAP1 SWAP2 ADD MSTORE DUP3 MLOAD DUP4 SWAP1 DUP4 SWAP1 DUP2 LT PUSH2 0x103C JUMPI PUSH2 0x103C PUSH2 0x17B3 JUMP JUMPDEST PUSH1 0x20 MUL PUSH1 0x20 ADD ADD DUP2 SWAP1 MSTORE POP DUP1 DUP1 PUSH2 0x1052 SWAP1 PUSH2 0x16C9 JUMP JUMPDEST SWAP2 POP POP PUSH2 0xE6F JUMP JUMPDEST POP SWAP4 SWAP3 POP POP POP JUMP JUMPDEST DUP3 DUP1 SLOAD PUSH2 0x106E SWAP1 PUSH2 0x174E JUMP JUMPDEST SWAP1 PUSH1 0x0 MSTORE PUSH1 0x20 PUSH1 0x0 KECCAK256 SWAP1 PUSH1 0x1F ADD PUSH1 0x20 SWAP1 DIV DUP2 ADD SWAP3 DUP3 PUSH2 0x1090 JUMPI PUSH1 0x0 DUP6 SSTORE PUSH2 0x10D6 JUMP JUMPDEST DUP3 PUSH1 0x1F LT PUSH2 0x10A9 JUMPI DUP1 MLOAD PUSH1 0xFF NOT AND DUP4 DUP1 ADD OR DUP6 SSTORE PUSH2 0x10D6 JUMP JUMPDEST DUP3 DUP1 ADD PUSH1 0x1 ADD DUP6 SSTORE DUP3 ISZERO PUSH2 0x10D6 JUMPI SWAP2 DUP3 ADD JUMPDEST DUP3 DUP2 GT ISZERO PUSH2 0x10D6 JUMPI DUP3 MLOAD DUP3 SSTORE SWAP2 PUSH1 0x20 ADD SWAP2 SWAP1 PUSH1 0x1 ADD SWAP1 PUSH2 0x10BB JUMP JUMPDEST POP PUSH2 0x10E2 SWAP3 SWAP2 POP PUSH2 0x10E6 JUMP JUMPDEST POP SWAP1 JUMP JUMPDEST JUMPDEST DUP1 DUP3 GT ISZERO PUSH2 0x10E2 JUMPI PUSH1 0x0 DUP2 SSTORE PUSH1 0x1 ADD PUSH2 0x10E7 JUMP JUMPDEST DUP1 CALLDATALOAD PUSH20 0xFFFFFFFFFFFFFFFFFFFFFFFFFFFFFFFFFFFFFFFF DUP2 AND DUP2 EQ PUSH2 0x111F JUMPI PUSH1 0x0 DUP1 REVERT JUMPDEST SWAP2 SWAP1 POP JUMP JUMPDEST PUSH1 0x0 PUSH1 0x20 DUP3 DUP5 SUB SLT ISZERO PUSH2 0x1136 JUMPI PUSH1 0x0 DUP1 REVERT JUMPDEST PUSH2 0x113F DUP3 PUSH2 0x10FB JUMP JUMPDEST SWAP4 SWAP3 POP POP POP JUMP JUMPDEST PUSH1 0x0 PUSH1 0x20 DUP3 DUP5 SUB SLT ISZERO PUSH2 0x1158 JUMPI PUSH1 0x0 DUP1 REVERT JUMPDEST POP CALLDATALOAD SWAP2 SWAP1 POP JUMP JUMPDEST DUP1 CALLDATALOAD DUP1 ISZERO ISZERO DUP2 EQ PUSH2 0x111F JUMPI PUSH1 0x0 DUP1 REVERT JUMPDEST PUSH1 0x0 DUP1 PUSH1 0x40 DUP4 DUP6 SUB SLT ISZERO PUSH2 0x1182 JUMPI PUSH1 0x0 DUP1 REVERT JUMPDEST PUSH2 0x118B DUP4 PUSH2 0x10FB JUMP JUMPDEST SWAP2 POP PUSH2 0x1199 PUSH1 0x20 DUP5 ADD PUSH2 0x115F JUMP JUMPDEST SWAP1 POP SWAP3 POP SWAP3 SWAP1 POP JUMP JUMPDEST PUSH1 0x0 DUP1 PUSH1 0x40 DUP4 DUP6 SUB SLT ISZERO PUSH2 0x11B5 JUMPI PUSH1 0x0 DUP1 REVERT JUMPDEST POP POP DUP1 CALLDATALOAD SWAP3 PUSH1 0x20 SWAP1 SWAP2 ADD CALLDATALOAD SWAP2 POP JUMP JUMPDEST PUSH1 0x0 PUSH1 0x60 DUP3 DUP5 SUB SLT ISZERO PUSH2 0x11D6 JUMPI PUSH1 0x0 DUP1 REVERT JUMPDEST POP SWAP2 SWAP1 POP JUMP JUMPDEST PUSH1 0x0 DUP1 PUSH1 0x0 DUP1 PUSH1 0x0 DUP1 PUSH1 0x0 DUP1 PUSH1 0x0 DUP1 PUSH2 0x220 DUP12 DUP14 SUB SLT ISZERO PUSH2 0x11FC JUMPI PUSH1 0x0 DUP1 REVERT JUMPDEST DUP11 CALLDATALOAD SWAP10 POP PUSH2 0x120D DUP13 PUSH1 0x20 DUP14 ADD PUSH2 0x11C4 JUMP JUMPDEST SWAP9 POP PUSH2 0x121C DUP13 PUSH1 0x80 DUP14 ADD PUSH2 0x11C4 JUMP JUMPDEST SWAP8 POP PUSH2 0x122B DUP13 PUSH1 0xE0 DUP14 ADD PUSH2 0x11C4 JUMP JUMPDEST SWAP7 POP PUSH2 0x123B DUP13 PUSH2 0x140 DUP14 ADD PUSH2 0x11C4 JUMP JUMPDEST SWAP6 POP PUSH2 0x1A0 DUP12 ADD CALLDATALOAD SWAP5 POP PUSH2 0x1C0 DUP12 ADD CALLDATALOAD PUSH8 0xFFFFFFFFFFFFFFFF DUP1 DUP3 GT ISZERO PUSH2 0x1261 JUMPI PUSH1 0x0 DUP1 REVERT JUMPDEST DUP2 DUP14 ADD SWAP2 POP DUP14 PUSH1 0x1F DUP4 ADD SLT PUSH2 0x1275 JUMPI PUSH1 0x0 DUP1 REVERT JUMPDEST DUP2 CALLDATALOAD DUP2 DUP2 GT ISZERO PUSH2 0x1284 JUMPI PUSH1 0x0 DUP1 REVERT JUMPDEST DUP15 PUSH1 0x20 DUP3 DUP6 ADD ADD GT ISZERO PUSH2 0x1296 JUMPI PUSH1 0x0 DUP1 REVERT JUMPDEST PUSH1 0x20 DUP4 ADD SWAP7 POP DUP1 SWAP6 POP POP POP POP PUSH2 0x12AF PUSH2 0x1E0 DUP13 ADD PUSH2 0x115F JUMP JUMPDEST SWAP2 POP PUSH2 0x12BE PUSH2 0x200 DUP13 ADD PUSH2 0x10FB JUMP JUMPDEST SWAP1 POP SWAP3 SWAP6 SWAP9 SWAP12 SWAP2 SWAP5 SWAP8 SWAP11 POP SWAP3 SWAP6 SWAP9 POP JUMP JUMPDEST PUSH1 0x0 DUP2 MLOAD DUP1 DUP5 MSTORE PUSH1 0x0 JUMPDEST DUP2 DUP2 LT ISZERO PUSH2 0x12F5 JUMPI PUSH1 0x20 DUP2 DUP6 ADD DUP2 ADD MLOAD DUP7 DUP4 ADD DUP3 ADD MSTORE ADD PUSH2 0x12D9 JUMP JUMPDEST DUP2 DUP2 GT ISZERO PUSH2 0x1307 JUMPI PUSH1 0x0 PUSH1 0x20 DUP4 DUP8 ADD ADD MSTORE JUMPDEST POP PUSH1 0x1F ADD PUSH32 0xFFFFFFFFFFFFFFFFFFFFFFFFFFFFFFFFFFFFFFFFFFFFFFFFFFFFFFFFFFFFFFE0 AND SWAP3 SWAP1 SWAP3 ADD PUSH1 0x20 ADD SWAP3 SWAP2 POP POP JUMP JUMPDEST PUSH1 0x0 PUSH2 0x200 PUSH2 0x1369 DUP4 DUP13 PUSH1 0xFF DUP2 MLOAD AND DUP3 MSTORE PUSH1 0xFF PUSH1 0x20 DUP3 ADD MLOAD AND PUSH1 0x20 DUP4 ADD MSTORE PUSH1 0xFF PUSH1 0x40 DUP3 ADD MLOAD AND PUSH1 0x40 DUP4 ADD MSTORE POP POP JUMP JUMPDEST DUP10 MLOAD PUSH1 0xFF SWAP1 DUP2 AND PUSH1 0x60 DUP6 ADD MSTORE PUSH1 0x20 DUP12 ADD MLOAD DUP2 AND PUSH1 0x80 DUP6 ADD MSTORE PUSH1 0x40 DUP12 ADD MLOAD AND PUSH1 0xA0 DUP5 ADD MSTORE DUP9 MLOAD PUSH1 0xFF SWAP1 DUP2 AND PUSH1 0xC0 DUP6 ADD MSTORE PUSH1 0x20 DUP11 ADD MLOAD DUP2 AND PUSH1 0xE0 DUP6 ADD MSTORE PUSH1 0x40 DUP11 ADD MLOAD AND PUSH2 0x100 DUP5 ADD MSTORE DUP8 MLOAD PUSH1 0xFF SWAP1 DUP2 AND PUSH2 0x120 DUP6 ADD MSTORE PUSH1 0x20 DUP10 ADD MLOAD DUP2 AND PUSH2 0x140 DUP6 ADD MSTORE PUSH1 0x40 DUP10 ADD MLOAD AND PUSH2 0x160 DUP5 ADD MSTORE DUP7 PUSH2 0x180 DUP5 ADD MSTORE DUP1 PUSH2 0x1A0 DUP5 ADD MSTORE PUSH2 0x13F0 DUP2 DUP5 ADD DUP8 PUSH2 0x12CF JUMP JUMPDEST SWAP5 ISZERO ISZERO PUSH2 0x1C0 DUP5 ADD MSTORE POP POP PUSH20 0xFFFFFFFFFFFFFFFFFFFFFFFFFFFFFFFFFFFFFFFF SWAP2 SWAP1 SWAP2 AND PUSH2 0x1E0 SWAP1 SWAP2 ADD MSTORE SWAP7 SWAP6 POP POP POP POP POP POP JUMP JUMPDEST PUSH1 0x0 PUSH1 0x20 DUP1 DUP4 ADD DUP2 DUP5 MSTORE DUP1 DUP6 MLOAD DUP1 DUP4 MSTORE PUSH1 0x40 SWAP3 POP DUP3 DUP7 ADD SWAP2 POP DUP3 DUP2 PUSH1 0x5 SHL DUP8 ADD ADD DUP5 DUP9 ADD PUSH1 0x0 JUMPDEST DUP4 DUP2 LT ISZERO PUSH2 0x15B9 JUMPI PUSH32 0xFFFFFFFFFFFFFFFFFFFFFFFFFFFFFFFFFFFFFFFFFFFFFFFFFFFFFFFFFFFFFFC0 DUP10 DUP5 SUB ADD DUP6 MSTORE DUP2 MLOAD PUSH2 0x200 PUSH2 0x14AB DUP6 DUP4 MLOAD PUSH1 0xFF DUP2 MLOAD AND DUP3 MSTORE PUSH1 0xFF PUSH1 0x20 DUP3 ADD MLOAD AND PUSH1 0x20 DUP4 ADD MSTORE PUSH1 0xFF PUSH1 0x40 DUP3 ADD MLOAD AND PUSH1 0x40 DUP4 ADD MSTORE POP POP JUMP JUMPDEST DUP9 DUP3 ADD MLOAD PUSH1 0x60 PUSH2 0x14DD DUP2 DUP9 ADD DUP4 PUSH1 0xFF DUP2 MLOAD AND DUP3 MSTORE PUSH1 0xFF PUSH1 0x20 DUP3 ADD MLOAD AND PUSH1 0x20 DUP4 ADD MSTORE PUSH1 0xFF PUSH1 0x40 DUP3 ADD MLOAD AND PUSH1 0x40 DUP4 ADD MSTORE POP POP JUMP JUMPDEST DUP10 DUP5 ADD MLOAD SWAP2 POP PUSH1 0xC0 PUSH2 0x1511 DUP2 DUP10 ADD DUP5 PUSH1 0xFF DUP2 MLOAD AND DUP3 MSTORE PUSH1 0xFF PUSH1 0x20 DUP3 ADD MLOAD AND PUSH1 0x20 DUP4 ADD MSTORE PUSH1 0xFF PUSH1 0x40 DUP3 ADD MLOAD AND PUSH1 0x40 DUP4 ADD MSTORE POP POP JUMP JUMPDEST DUP5 DUP3 ADD MLOAD DUP1 MLOAD PUSH1 0xFF SWAP1 DUP2 AND PUSH2 0x120 DUP12 ADD MSTORE PUSH1 0x20 DUP3 ADD MLOAD DUP2 AND PUSH2 0x140 DUP12 ADD MSTORE PUSH1 0x40 DUP3 ADD MLOAD AND PUSH2 0x160 DUP11 ADD MSTORE SWAP3 POP PUSH1 0x80 DUP6 ADD MLOAD PUSH2 0x180 DUP10 ADD MSTORE PUSH1 0xA0 DUP6 ADD MLOAD SWAP3 POP DUP4 PUSH2 0x1A0 DUP10 ADD MSTORE PUSH2 0x1562 DUP5 DUP10 ADD DUP5 PUSH2 0x12CF JUMP JUMPDEST SWAP4 POP DUP1 DUP6 ADD MLOAD SWAP3 POP POP POP PUSH2 0x157B PUSH2 0x1C0 DUP8 ADD DUP3 ISZERO ISZERO SWAP1 MSTORE JUMP JUMPDEST POP PUSH1 0xE0 DUP3 ADD MLOAD SWAP2 POP PUSH2 0x15A6 PUSH2 0x1E0 DUP7 ADD DUP4 PUSH20 0xFFFFFFFFFFFFFFFFFFFFFFFFFFFFFFFFFFFFFFFF AND SWAP1 MSTORE JUMP JUMPDEST SWAP6 DUP9 ADD SWAP6 SWAP4 POP POP SWAP1 DUP7 ADD SWAP1 PUSH1 0x1 ADD PUSH2 0x144C JUMP JUMPDEST POP SWAP1 SWAP9 SWAP8 POP POP POP POP POP POP POP POP JUMP JUMPDEST PUSH32 0x4E487B7100000000000000000000000000000000000000000000000000000000 PUSH1 0x0 MSTORE PUSH1 0x41 PUSH1 0x4 MSTORE PUSH1 0x24 PUSH1 0x0 REVERT JUMPDEST DUP1 CALLDATALOAD PUSH1 0xFF DUP2 AND DUP2 EQ PUSH2 0x111F JUMPI PUSH1 0x0 DUP1 REVERT JUMPDEST PUSH1 0x0 PUSH1 0x60 DUP3 DUP5 SUB SLT ISZERO PUSH2 0x1619 JUMPI PUSH1 0x0 DUP1 REVERT JUMPDEST PUSH1 0x40 MLOAD PUSH1 0x60 DUP2 ADD DUP2 DUP2 LT PUSH8 0xFFFFFFFFFFFFFFFF DUP3 GT OR ISZERO PUSH2 0x1663 JUMPI PUSH32 0x4E487B7100000000000000000000000000000000000000000000000000000000 PUSH1 0x0 MSTORE PUSH1 0x41 PUSH1 0x4 MSTORE PUSH1 0x24 PUSH1 0x0 REVERT JUMPDEST PUSH1 0x40 MSTORE PUSH2 0x166F DUP4 PUSH2 0x15F6 JUMP JUMPDEST DUP2 MSTORE PUSH2 0x167D PUSH1 0x20 DUP5 ADD PUSH2 0x15F6 JUMP JUMPDEST PUSH1 0x20 DUP3 ADD MSTORE PUSH2 0x168E PUSH1 0x40 DUP5 ADD PUSH2 0x15F6 JUMP JUMPDEST PUSH1 0x40 DUP3 ADD MSTORE SWAP4 SWAP3 POP POP POP JUMP JUMPDEST PUSH32 0x4E487B7100000000000000000000000000000000000000000000000000000000 PUSH1 0x0 MSTORE PUSH1 0x11 PUSH1 0x4 MSTORE PUSH1 0x24 PUSH1 0x0 REVERT JUMPDEST PUSH1 0x0 PUSH32 0xFFFFFFFFFFFFFFFFFFFFFFFFFFFFFFFFFFFFFFFFFFFFFFFFFFFFFFFFFFFFFFFF DUP3 SUB PUSH2 0x16FA JUMPI PUSH2 0x16FA PUSH2 0x169A JUMP JUMPDEST POP PUSH1 0x1 ADD SWAP1 JUMP JUMPDEST PUSH1 0x20 DUP2 MSTORE DUP2 PUSH1 0x20 DUP3 ADD MSTORE DUP2 DUP4 PUSH1 0x40 DUP4 ADD CALLDATACOPY PUSH1 0x0 DUP2 DUP4 ADD PUSH1 0x40 SWAP1 DUP2 ADD SWAP2 SWAP1 SWAP2 MSTORE PUSH1 0x1F SWAP1 SWAP3 ADD PUSH32 0xFFFFFFFFFFFFFFFFFFFFFFFFFFFFFFFFFFFFFFFFFFFFFFFFFFFFFFFFFFFFFFE0 AND ADD ADD SWAP2 SWAP1 POP JUMP JUMPDEST PUSH1 0x1 DUP2 DUP2 SHR SWAP1 DUP3 AND DUP1 PUSH2 0x1762 JUMPI PUSH1 0x7F DUP3 AND SWAP2 POP JUMPDEST PUSH1 0x20 DUP3 LT DUP2 SUB PUSH2 0x11D6 JUMPI PUSH32 0x4E487B7100000000000000000000000000000000000000000000000000000000 PUSH1 0x0 MSTORE PUSH1 0x22 PUSH1 0x4 MSTORE PUSH1 0x24 PUSH1 0x0 REVERT JUMPDEST PUSH1 0x0 DUP3 NOT DUP3 GT ISZERO PUSH2 0x17AE JUMPI PUSH2 0x17AE PUSH2 0x169A JUMP JUMPDEST POP ADD SWAP1 JUMP JUMPDEST PUSH32 0x4E487B7100000000000000000000000000000000000000000000000000000000 PUSH1 0x0 MSTORE PUSH1 0x32 PUSH1 0x4 MSTORE PUSH1 0x24 PUSH1 0x0 REVERT INVALID LOG2 PUSH5 0x6970667358 0x22 SLT KECCAK256 EQ DUP5 0xD4 CALLDATASIZE ADDMOD DUP15 PUSH21 0xBD0EBB6878B87CC3FEF11B95A44CE1C789F9A971CD 0xCA DUP11 0xC0 MULMOD PUSH5 0x736F6C6343 STOP ADDMOD 0xD STOP CALLER "
        },
        "methodIdentifiers": {
          "cashOut()": "793cd71e",
          "createLock(uint256,(uint8,uint8,uint8),(uint8,uint8,uint8),(uint8,uint8,uint8),(uint8,uint8,uint8),uint256,string,bool,address)": "dedb0443",
          "customLockPrices(uint256)": "3afbcea9",
          "defaultLockPrice()": "ee843c7b",
          "disableLockCreation(uint256)": "3a5f4fee",
          "getLockCount()": "94493c43",
          "getLockPrice(uint256)": "cb61f4ac",
          "getLocksSet(uint256,uint256)": "f630c895",
          "highestValidLockType()": "c75cc6c3",
          "lockCount()": "9b10b6f5",
          "lockCreationDisabled(uint256)": "cbd87358",
          "locks(uint256)": "f4dadc61",
          "owners(address)": "022914a7",
          "setDefaultLockPrice(uint256)": "297a4caf",
          "setHighestValidLockType(uint256)": "e632c00d",
          "setLockTypePrice(uint256,uint256)": "dd8f6aca",
          "setOwner(address,bool)": "516c731c"
        }
      }
    }
  }
}