{
  "_format": "hh-sol-artifact-1",
  "contractName": "EthernalLock",
  "sourceName": "contracts/EthernalLock.sol",
  "abi": [
    {
      "inputs": [],
      "stateMutability": "nonpayable",
      "type": "constructor"
    },
    {
      "anonymous": false,
      "inputs": [
        {
          "indexed": true,
          "internalType": "address",
          "name": "_from",
          "type": "address"
        },
        {
          "indexed": true,
          "internalType": "address",
          "name": "_lovee",
          "type": "address"
        },
        {
          "indexed": false,
          "internalType": "string",
          "name": "_txt",
          "type": "string"
        }
      ],
      "name": "LockCreated",
      "type": "event"
    },
    {
      "inputs": [],
      "name": "cashOut",
      "outputs": [],
      "stateMutability": "nonpayable",
      "type": "function"
    },
    {
      "inputs": [
        {
          "internalType": "uint256",
          "name": "lockIndex",
          "type": "uint256"
        },
        {
          "components": [
            {
              "internalType": "uint8",
              "name": "R",
              "type": "uint8"
            },
            {
              "internalType": "uint8",
              "name": "G",
              "type": "uint8"
            },
            {
              "internalType": "uint8",
              "name": "B",
              "type": "uint8"
            }
          ],
          "internalType": "struct EthernalLock.Color",
          "name": "backgroundColor",
          "type": "tuple"
        },
        {
          "components": [
            {
              "internalType": "uint8",
              "name": "R",
              "type": "uint8"
            },
            {
              "internalType": "uint8",
              "name": "G",
              "type": "uint8"
            },
            {
              "internalType": "uint8",
              "name": "B",
              "type": "uint8"
            }
          ],
          "internalType": "struct EthernalLock.Color",
          "name": "lockColor",
          "type": "tuple"
        },
        {
          "components": [
            {
              "internalType": "uint8",
              "name": "R",
              "type": "uint8"
            },
            {
              "internalType": "uint8",
              "name": "G",
              "type": "uint8"
            },
            {
              "internalType": "uint8",
              "name": "B",
              "type": "uint8"
            }
          ],
          "internalType": "struct EthernalLock.Color",
          "name": "labelColor",
          "type": "tuple"
        },
        {
          "components": [
            {
              "internalType": "uint8",
              "name": "R",
              "type": "uint8"
            },
            {
              "internalType": "uint8",
              "name": "G",
              "type": "uint8"
            },
            {
              "internalType": "uint8",
              "name": "B",
              "type": "uint8"
            }
          ],
          "internalType": "struct EthernalLock.Color",
          "name": "textColor",
          "type": "tuple"
        },
        {
          "internalType": "uint256",
          "name": "lockType",
          "type": "uint256"
        },
        {
          "internalType": "string",
          "name": "text",
          "type": "string"
        },
        {
          "internalType": "bool",
          "name": "encrypted",
          "type": "bool"
        },
        {
          "internalType": "address",
          "name": "lovee",
          "type": "address"
        }
      ],
      "name": "createLock",
      "outputs": [
        {
          "internalType": "uint256",
          "name": "pos",
          "type": "uint256"
        }
      ],
      "stateMutability": "payable",
      "type": "function"
    },
    {
      "inputs": [
        {
          "internalType": "uint256",
          "name": "",
          "type": "uint256"
        }
      ],
      "name": "customLockPrices",
      "outputs": [
        {
          "internalType": "uint256",
          "name": "",
          "type": "uint256"
        }
      ],
      "stateMutability": "view",
      "type": "function"
    },
    {
      "inputs": [],
      "name": "defaultLockPrice",
      "outputs": [
        {
          "internalType": "uint256",
          "name": "",
          "type": "uint256"
        }
      ],
      "stateMutability": "view",
      "type": "function"
    },
    {
      "inputs": [
        {
          "internalType": "uint256",
          "name": "number",
          "type": "uint256"
        }
      ],
      "name": "disableLockCreation",
      "outputs": [],
      "stateMutability": "nonpayable",
      "type": "function"
    },
    {
      "inputs": [],
      "name": "getLockCount",
      "outputs": [
        {
          "internalType": "uint256",
          "name": "count",
          "type": "uint256"
        }
      ],
      "stateMutability": "view",
      "type": "function"
    },
    {
      "inputs": [
        {
          "internalType": "uint256",
          "name": "lockType",
          "type": "uint256"
        }
      ],
      "name": "getLockPrice",
      "outputs": [
        {
          "internalType": "uint256",
          "name": "lockPrice",
          "type": "uint256"
        }
      ],
      "stateMutability": "view",
      "type": "function"
    },
    {
      "inputs": [
        {
          "internalType": "uint256",
          "name": "start",
          "type": "uint256"
        },
        {
          "internalType": "uint256",
          "name": "count",
          "type": "uint256"
        }
      ],
      "name": "getLocksSet",
      "outputs": [
        {
          "components": [
            {
              "components": [
                {
                  "internalType": "uint8",
                  "name": "R",
                  "type": "uint8"
                },
                {
                  "internalType": "uint8",
                  "name": "G",
                  "type": "uint8"
                },
                {
                  "internalType": "uint8",
                  "name": "B",
                  "type": "uint8"
                }
              ],
              "internalType": "struct EthernalLock.Color",
              "name": "BackgroundColor",
              "type": "tuple"
            },
            {
              "components": [
                {
                  "internalType": "uint8",
                  "name": "R",
                  "type": "uint8"
                },
                {
                  "internalType": "uint8",
                  "name": "G",
                  "type": "uint8"
                },
                {
                  "internalType": "uint8",
                  "name": "B",
                  "type": "uint8"
                }
              ],
              "internalType": "struct EthernalLock.Color",
              "name": "LockColor",
              "type": "tuple"
            },
            {
              "components": [
                {
                  "internalType": "uint8",
                  "name": "R",
                  "type": "uint8"
                },
                {
                  "internalType": "uint8",
                  "name": "G",
                  "type": "uint8"
                },
                {
                  "internalType": "uint8",
                  "name": "B",
                  "type": "uint8"
                }
              ],
              "internalType": "struct EthernalLock.Color",
              "name": "LabelColor",
              "type": "tuple"
            },
            {
              "components": [
                {
                  "internalType": "uint8",
                  "name": "R",
                  "type": "uint8"
                },
                {
                  "internalType": "uint8",
                  "name": "G",
                  "type": "uint8"
                },
                {
                  "internalType": "uint8",
                  "name": "B",
                  "type": "uint8"
                }
              ],
              "internalType": "struct EthernalLock.Color",
              "name": "TextColor",
              "type": "tuple"
            },
            {
              "internalType": "uint256",
              "name": "LockType",
              "type": "uint256"
            },
            {
              "internalType": "string",
              "name": "Text",
              "type": "string"
            },
            {
              "internalType": "bool",
              "name": "Encrypted",
              "type": "bool"
            },
            {
              "internalType": "address",
              "name": "Lovee",
              "type": "address"
            }
          ],
          "internalType": "struct EthernalLock.Lock[]",
          "name": "lockSet",
          "type": "tuple[]"
        }
      ],
      "stateMutability": "view",
      "type": "function"
    },
    {
      "inputs": [],
      "name": "highestValidLockType",
      "outputs": [
        {
          "internalType": "uint256",
          "name": "",
          "type": "uint256"
        }
      ],
      "stateMutability": "view",
      "type": "function"
    },
    {
      "inputs": [],
      "name": "lockCount",
      "outputs": [
        {
          "internalType": "uint256",
          "name": "",
          "type": "uint256"
        }
      ],
      "stateMutability": "view",
      "type": "function"
    },
    {
      "inputs": [
        {
          "internalType": "uint256",
          "name": "",
          "type": "uint256"
        }
      ],
      "name": "lockCreationDisabled",
      "outputs": [
        {
          "internalType": "bool",
          "name": "",
          "type": "bool"
        }
      ],
      "stateMutability": "view",
      "type": "function"
    },
    {
      "inputs": [
        {
          "internalType": "uint256",
          "name": "",
          "type": "uint256"
        }
      ],
      "name": "locks",
      "outputs": [
        {
          "components": [
            {
              "internalType": "uint8",
              "name": "R",
              "type": "uint8"
            },
            {
              "internalType": "uint8",
              "name": "G",
              "type": "uint8"
            },
            {
              "internalType": "uint8",
              "name": "B",
              "type": "uint8"
            }
          ],
          "internalType": "struct EthernalLock.Color",
          "name": "BackgroundColor",
          "type": "tuple"
        },
        {
          "components": [
            {
              "internalType": "uint8",
              "name": "R",
              "type": "uint8"
            },
            {
              "internalType": "uint8",
              "name": "G",
              "type": "uint8"
            },
            {
              "internalType": "uint8",
              "name": "B",
              "type": "uint8"
            }
          ],
          "internalType": "struct EthernalLock.Color",
          "name": "LockColor",
          "type": "tuple"
        },
        {
          "components": [
            {
              "internalType": "uint8",
              "name": "R",
              "type": "uint8"
            },
            {
              "internalType": "uint8",
              "name": "G",
              "type": "uint8"
            },
            {
              "internalType": "uint8",
              "name": "B",
              "type": "uint8"
            }
          ],
          "internalType": "struct EthernalLock.Color",
          "name": "LabelColor",
          "type": "tuple"
        },
        {
          "components": [
            {
              "internalType": "uint8",
              "name": "R",
              "type": "uint8"
            },
            {
              "internalType": "uint8",
              "name": "G",
              "type": "uint8"
            },
            {
              "internalType": "uint8",
              "name": "B",
              "type": "uint8"
            }
          ],
          "internalType": "struct EthernalLock.Color",
          "name": "TextColor",
          "type": "tuple"
        },
        {
          "internalType": "uint256",
          "name": "LockType",
          "type": "uint256"
        },
        {
          "internalType": "string",
          "name": "Text",
          "type": "string"
        },
        {
          "internalType": "bool",
          "name": "Encrypted",
          "type": "bool"
        },
        {
          "internalType": "address",
          "name": "Lovee",
          "type": "address"
        }
      ],
      "stateMutability": "view",
      "type": "function"
    },
    {
      "inputs": [
        {
          "internalType": "address",
          "name": "",
          "type": "address"
        }
      ],
      "name": "owners",
      "outputs": [
        {
          "internalType": "bool",
          "name": "",
          "type": "bool"
        }
      ],
      "stateMutability": "view",
      "type": "function"
    },
    {
      "inputs": [
        {
          "internalType": "uint256",
          "name": "lockPrice",
          "type": "uint256"
        }
      ],
      "name": "setDefaultLockPrice",
      "outputs": [],
      "stateMutability": "nonpayable",
      "type": "function"
    },
    {
      "inputs": [
        {
          "internalType": "uint256",
          "name": "count",
          "type": "uint256"
        }
      ],
      "name": "setHighestValidLockType",
      "outputs": [],
      "stateMutability": "nonpayable",
      "type": "function"
    },
    {
      "inputs": [
        {
          "internalType": "uint256",
          "name": "lockType",
          "type": "uint256"
        },
        {
          "internalType": "uint256",
          "name": "lockPrice",
          "type": "uint256"
        }
      ],
      "name": "setLockTypePrice",
      "outputs": [],
      "stateMutability": "nonpayable",
      "type": "function"
    },
    {
      "inputs": [
        {
          "internalType": "address",
          "name": "adr",
          "type": "address"
        },
        {
          "internalType": "bool",
          "name": "isOwner",
          "type": "bool"
        }
      ],
      "name": "setOwner",
      "outputs": [],
      "stateMutability": "nonpayable",
      "type": "function"
    }
  ],
  "bytecode": "0x608060405234801561001057600080fd5b50662386f26fc100006000908155338152600360205260409020805460ff19166001179055611818806100446000396000f3fe60806040526004361061010e5760003560e01c8063c75cc6c3116100a5578063dedb044311610074578063ee843c7b11610059578063ee843c7b146102ee578063f4dadc6114610304578063f630c8951461033857600080fd5b8063dedb0443146102bb578063e632c00d146102ce57600080fd5b8063c75cc6c314610235578063cb61f4ac1461024b578063cbd873581461026b578063dd8f6aca1461029b57600080fd5b8063516c731c116100e1578063516c731c146101d5578063793cd71e146101f557806394493c431461020a5780639b10b6f51461021f57600080fd5b8063022914a714610113578063297a4caf146101585780633a5f4fee1461017a5780633afbcea91461019a575b600080fd5b34801561011f57600080fd5b5061014361012e366004611124565b60036020526000908152604090205460ff1681565b60405190151581526020015b60405180910390f35b34801561016457600080fd5b50610178610173366004611146565b610365565b005b34801561018657600080fd5b50610178610195366004611146565b6103d3565b3480156101a657600080fd5b506101c76101b5366004611146565b60046020526000908152604090205481565b60405190815260200161014f565b3480156101e157600080fd5b506101786101f036600461116f565b610470565b34801561020157600080fd5b5061017861052a565b34801561021657600080fd5b506002546101c7565b34801561022b57600080fd5b506101c760025481565b34801561024157600080fd5b506101c760065481565b34801561025757600080fd5b506101c7610266366004611146565b6105bd565b34801561027757600080fd5b50610143610286366004611146565b60056020526000908152604090205460ff1681565b3480156102a757600080fd5b506101786102b63660046111a2565b6105e3565b6101c76102c93660046111dc565b610659565b3480156102da57600080fd5b506101786102e9366004611146565b610b8c565b3480156102fa57600080fd5b506101c760005481565b34801561031057600080fd5b5061032461031f366004611146565b610bf5565b60405161014f98979695949392919061133a565b34801561034457600080fd5b506103586103533660046111a2565b610d64565b60405161014f9190611425565b3360009081526003602052604090205460ff1615156001146103ce5760405162461bcd60e51b815260206004820152601360248201527f43616c6c6572206973206e6f74206f776e65720000000000000000000000000060448201526064015b60405180910390fd5b600055565b3360009081526003602052604090205460ff1615156001146104375760405162461bcd60e51b815260206004820152601360248201527f43616c6c6572206973206e6f74206f776e65720000000000000000000000000060448201526064016103c5565b600090815260056020526040902080547fffffffffffffffffffffffffffffffffffffffffffffffffffffffffffffff00166001179055565b3360009081526003602052604090205460ff1615156001146104d45760405162461bcd60e51b815260206004820152601360248201527f43616c6c6572206973206e6f74206f776e65720000000000000000000000000060448201526064016103c5565b73ffffffffffffffffffffffffffffffffffffffff91909116600090815260036020526040902080547fffffffffffffffffffffffffffffffffffffffffffffffffffffffffffffff0016911515919091179055565b3360009081526003602052604090205460ff16151560011461058e5760405162461bcd60e51b815260206004820152601360248201527f43616c6c6572206973206e6f74206f776e65720000000000000000000000000060448201526064016103c5565b60405133904780156108fc02916000818181858888f193505050501580156105ba573d6000803e3d6000fd5b50565b6000818152600460205260408120548082036105dd575050600054919050565b92915050565b3360009081526003602052604090205460ff1615156001146106475760405162461bcd60e51b815260206004820152601360248201527f43616c6c6572206973206e6f74206f776e65720000000000000000000000000060448201526064016103c5565b60009182526004602052604090912055565b600080610665876105bd565b9050803410156106b75760405162461bcd60e51b815260206004820152601560248201527f5061796d656e74206973206e6f7420656e6f756768000000000000000000000060448201526064016103c5565b846107045760405162461bcd60e51b815260206004820181905260248201527f54657874206c656e6774682073686f756c64206265206174206c65617374203160448201526064016103c5565b61020085111561077c5760405162461bcd60e51b815260206004820152602c60248201527f54657874206c656e6774682073686f756c64206265206c657373207468616e2060448201527f6f7220657175616c20353132000000000000000000000000000000000000000060648201526084016103c5565b6006548711156107f45760405162461bcd60e51b815260206004820152603660248201527f596f752063616e206f6e6c7920637265617465642061206c6f636b207769746860448201527f206120747970652074686174277320616c6c6f7765640000000000000000000060648201526084016103c5565b6000871161086a5760405162461bcd60e51b815260206004820152603060248201527f596f752063616e206f6e6c7920637265617465206c6f636b732077697468206160448201527f207479706520746861742773203e20300000000000000000000000000000000060648201526084016103c5565b60008c8152600160205260409020600401541561088657600080fd5b6040518061010001604052808c8036038101906108a39190611607565b81526020016108b7368d90038d018d611607565b81526020016108cb368c90038c018c611607565b81526020016108df368b90038b018b611607565b815260200188815260200187878080601f016020809104026020016040519081016040528093929190818152602001838380828437600092018290525093855250505086151560208084019190915273ffffffffffffffffffffffffffffffffffffffff87166040938401528f8252600180825291839020845180518254828501519287015160ff9283167fffffffffffffffffffffffffffffffffffffffffffffffffffffffffffff0000928316176101009484168502177fffffffffffffffffffffffffffffffffffffffffffffffffffffffffff00ffff9081166201000092851683021786558987015180519887018054828a0151928c01519a8716908616179186168702919091178216988516830298909817909755888801518051600287018054838a0151938c0151928716908616179286168702929092178916908516830217905560608901518051600387018054838a015193909b01519186169a9094169990991790841690940293909317909516951602939093179091556080830151600483015560a08301518051610a809260058501920190611062565b5060c08201516006909101805460e09093015173ffffffffffffffffffffffffffffffffffffffff16610100027fffffffffffffffffffffff0000000000000000000000000000000000000000ff921515929092167fffffffffffffffffffffff0000000000000000000000000000000000000000009093169290921717905560028054906000610b10836116c9565b91905055508273ffffffffffffffffffffffffffffffffffffffff163373ffffffffffffffffffffffffffffffffffffffff167ff89d106996b5413ef569b54c0e60a38afd8c7c0dba4002d065524c194e1d11d38888604051610b74929190611701565b60405180910390a350999a9950505050505050505050565b3360009081526003602052604090205460ff161515600114610bf05760405162461bcd60e51b815260206004820152601360248201527f43616c6c6572206973206e6f74206f776e65720000000000000000000000000060448201526064016103c5565b600655565b600160208181526000928352604092839020835160608082018652825460ff808216845261010080830482168588015262010000928390048216858a015288518085018a529786015480831689528181048316898901528390048216888a015288518085018a52600287015480841682528281048416828a01528490048316818b015289519485018a526003870154808416865291820483169785019790975291909104169581019590955260048201546005830180549296939192610cba9061174e565b80601f0160208091040260200160405190810160405280929190818152602001828054610ce69061174e565b8015610d335780601f10610d0857610100808354040283529160200191610d33565b820191906000526020600020905b815481529060010190602001808311610d1657829003601f168201915b5050506006909301549192505060ff81169073ffffffffffffffffffffffffffffffffffffffff6101009091041688565b606060008267ffffffffffffffff811115610d8157610d816115c7565b604051908082528060200260200182016040528015610e6957816020015b604080516101608101825260006101008201818152610120830182905261014083018290528252825160608082018552828252602080830184905282860184905280850192909252845180820186528381528083018490528086018490528486015284518082018652838152808301849052948501839052808401949094526080830182905260a083019390935260c0820181905260e082015282527fffffffffffffffffffffffffffffffffffffffffffffffffffffffffffffffff909201910181610d9f5790505b50905060005b815181101561105a5760016000610e86878461179b565b81526020808201929092526040908101600020815161016081018352815460ff808216610100808501918252808404831661012086015262010000938490048316610140860152908452855160608181018852600187015480851683528381048516838b01528590048416828901528589019190915286518082018852600287015480851682528381048516828b01528590048416818901528588015286518082018852600387015480851682529283048416988101989098529290041693850193909352918201929092526004820154608082015260058201805491929160a084019190610f749061174e565b80601f0160208091040260200160405190810160405280929190818152602001828054610fa09061174e565b8015610fed5780601f10610fc257610100808354040283529160200191610fed565b820191906000526020600020905b815481529060010190602001808311610fd057829003601f168201915b50505091835250506006919091015460ff811615156020830152610100900473ffffffffffffffffffffffffffffffffffffffff16604090910152825183908390811061103c5761103c6117b3565b60200260200101819052508080611052906116c9565b915050610e6f565b509392505050565b82805461106e9061174e565b90600052602060002090601f01602090048101928261109057600085556110d6565b82601f106110a957805160ff19168380011785556110d6565b828001600101855582156110d6579182015b828111156110d65782518255916020019190600101906110bb565b506110e29291506110e6565b5090565b5b808211156110e257600081556001016110e7565b803573ffffffffffffffffffffffffffffffffffffffff8116811461111f57600080fd5b919050565b60006020828403121561113657600080fd5b61113f826110fb565b9392505050565b60006020828403121561115857600080fd5b5035919050565b8035801515811461111f57600080fd5b6000806040838503121561118257600080fd5b61118b836110fb565b91506111996020840161115f565b90509250929050565b600080604083850312156111b557600080fd5b50508035926020909101359150565b6000606082840312156111d657600080fd5b50919050565b6000806000806000806000806000806102208b8d0312156111fc57600080fd5b8a35995061120d8c60208d016111c4565b985061121c8c60808d016111c4565b975061122b8c60e08d016111c4565b965061123b8c6101408d016111c4565b95506101a08b013594506101c08b013567ffffffffffffffff8082111561126157600080fd5b818d0191508d601f83011261127557600080fd5b81358181111561128457600080fd5b8e602082850101111561129657600080fd5b6020830196508095505050506112af6101e08c0161115f565b91506112be6102008c016110fb565b90509295989b9194979a5092959850565b6000815180845260005b818110156112f5576020818501810151868301820152016112d9565b81811115611307576000602083870101525b50601f017fffffffffffffffffffffffffffffffffffffffffffffffffffffffffffffffe0169290920160200192915050565b6000610200611369838c60ff815116825260ff602082015116602083015260ff60408201511660408301525050565b895160ff908116606085015260208b01518116608085015260408b01511660a0840152885160ff90811660c085015260208a0151811660e085015260408a015116610100840152875160ff9081166101208501526020890151811661014085015260408901511661016084015286610180840152806101a08401526113f0818401876112cf565b9415156101c0840152505073ffffffffffffffffffffffffffffffffffffffff919091166101e0909101529695505050505050565b60006020808301818452808551808352604092508286019150828160051b87010184880160005b838110156115b9577fffffffffffffffffffffffffffffffffffffffffffffffffffffffffffffffc089840301855281516102006114ab85835160ff815116825260ff602082015116602083015260ff60408201511660408301525050565b8882015160606114dd8188018360ff815116825260ff602082015116602083015260ff60408201511660408301525050565b89840151915060c06115118189018460ff815116825260ff602082015116602083015260ff60408201511660408301525050565b84820151805160ff9081166101208b0152602082015181166101408b01526040820151166101608a01529250608085015161018089015260a08501519250836101a0890152611562848901846112cf565b9350808501519250505061157b6101c087018215159052565b5060e082015191506115a66101e086018373ffffffffffffffffffffffffffffffffffffffff169052565b958801959350509086019060010161144c565b509098975050505050505050565b7f4e487b7100000000000000000000000000000000000000000000000000000000600052604160045260246000fd5b803560ff8116811461111f57600080fd5b60006060828403121561161957600080fd5b6040516060810181811067ffffffffffffffff82111715611663577f4e487b7100000000000000000000000000000000000000000000000000000000600052604160045260246000fd5b60405261166f836115f6565b815261167d602084016115f6565b602082015261168e604084016115f6565b60408201529392505050565b7f4e487b7100000000000000000000000000000000000000000000000000000000600052601160045260246000fd5b60007fffffffffffffffffffffffffffffffffffffffffffffffffffffffffffffffff82036116fa576116fa61169a565b5060010190565b60208152816020820152818360408301376000818301604090810191909152601f9092017fffffffffffffffffffffffffffffffffffffffffffffffffffffffffffffffe0160101919050565b600181811c9082168061176257607f821691505b6020821081036111d6577f4e487b7100000000000000000000000000000000000000000000000000000000600052602260045260246000fd5b600082198211156117ae576117ae61169a565b500190565b7f4e487b7100000000000000000000000000000000000000000000000000000000600052603260045260246000fdfea26469706673582212201484d436088e74bd0ebb6878b87cc3fef11b95a44ce1c789f9a971cdca8ac00964736f6c634300080d0033",
  "linkReferences": {},
  "deployedLinkReferences": {}
}