{
  "_format": "hh-sol-artifact-1",
  "contractName": "Test",
  "sourceName": "contracts/Test.sol",
  "abi": [
    {
      "inputs": [
        {
          "internalType": "uint256",
          "name": "number",
          "type": "uint256"
        },
        {
          "components": [
            {
              "internalType": "uint8",
              "name": "R",
              "type": "uint8"
            },
            {
              "internalType": "uint8",
              "name": "G",
              "type": "uint8"
            },
            {
              "internalType": "uint8",
              "name": "B",
              "type": "uint8"
            }
          ],
          "internalType": "struct Test.Color",
          "name": "backgroundColor",
          "type": "tuple"
        },
        {
          "internalType": "string",
          "name": "txt",
          "type": "string"
        }
      ],
      "name": "create",
      "outputs": [],
      "stateMutability": "nonpayable",
      "type": "function"
    },
    {
      "inputs": [],
      "name": "theBackgroundColor",
      "outputs": [
        {
          "internalType": "uint8",
          "name": "R",
          "type": "uint8"
        },
        {
          "internalType": "uint8",
          "name": "G",
          "type": "uint8"
        },
        {
          "internalType": "uint8",
          "name": "B",
          "type": "uint8"
        }
      ],
      "stateMutability": "view",
      "type": "function"
    },
    {
      "inputs": [],
      "name": "theNumber",
      "outputs": [
        {
          "internalType": "uint256",
          "name": "",
          "type": "uint256"
        }
      ],
      "stateMutability": "view",
      "type": "function"
    },
    {
      "inputs": [],
      "name": "theTxt",
      "outputs": [
        {
          "internalType": "string",
          "name": "",
          "type": "string"
        }
      ],
      "stateMutability": "view",
      "type": "function"
    }
  ],
  "bytecode": "0x608060405234801561001057600080fd5b506104c4806100206000396000f3fe608060405234801561001057600080fd5b506004361061004c5760003560e01c80633270284d14610051578063998e67601461009a578063ca1d8b29146100af578063fb68540a146100c4575b600080fd5b6000546100719060ff808216916101008104821691620100009091041683565b6040805160ff948516815292841660208401529216918101919091526060015b60405180910390f35b6100ad6100a8366004610248565b6100db565b005b6100b7610103565b60405161009191906102f9565b6100cd60015481565b604051908152602001610091565b60018490558260006100ed8282610385565b506100fc905060028383610191565b5050505050565b600280546101109061043b565b80601f016020809104026020016040519081016040528092919081815260200182805461013c9061043b565b80156101895780601f1061015e57610100808354040283529160200191610189565b820191906000526020600020905b81548152906001019060200180831161016c57829003601f168201915b505050505081565b82805461019d9061043b565b90600052602060002090601f0160209004810192826101bf5760008555610223565b82601f106101f6578280017fffffffffffffffffffffffffffffffffffffffffffffffffffffffffffffff00823516178555610223565b82800160010185558215610223579182015b82811115610223578235825591602001919060010190610208565b5061022f929150610233565b5090565b5b8082111561022f5760008155600101610234565b60008060008084860360a081121561025f57600080fd5b8535945060607fffffffffffffffffffffffffffffffffffffffffffffffffffffffffffffffe08201121561029357600080fd5b50602085019250608085013567ffffffffffffffff808211156102b557600080fd5b818701915087601f8301126102c957600080fd5b8135818111156102d857600080fd5b8860208285010111156102ea57600080fd5b95989497505060200194505050565b600060208083528351808285015260005b818110156103265785810183015185820160400152820161030a565b81811115610338576000604083870101525b50601f017fffffffffffffffffffffffffffffffffffffffffffffffffffffffffffffffe016929092016040019392505050565b6000813560ff8116811461037f57600080fd5b92915050565b60ff6103908361036c565b168154817fffffffffffffffffffffffffffffffffffffffffffffffffffffffffffffff00821617835561ff006103c96020860161036c565b60081b1680837fffffffffffffffffffffffffffffffffffffffffffffffffffffffffffff000084161717845562ff00006104066040870161036c565b60101b16837fffffffffffffffffffffffffffffffffffffffffffffffffffffffffff00000084161782171784555050505050565b600181811c9082168061044f57607f821691505b602082108103610488577f4e487b7100000000000000000000000000000000000000000000000000000000600052602260045260246000fd5b5091905056fea2646970667358221220fe5ccf46e587ef01df3d0abfd4475f0e51300eafd5b7d1f136a5f22e62b5c03164736f6c634300080d0033",
  "linkReferences": {},
  "deployedLinkReferences": {}
}