{
  "_format": "hh-sol-artifact-1",
  "contractName": "TestConstructorArgs",
  "sourceName": "contracts/TestConstructorArgs.sol",
  "abi": [
    {
      "inputs": [
        {
          "internalType": "uint256",
          "name": "number",
          "type": "uint256"
        },
        {
          "components": [
            {
              "internalType": "uint8",
              "name": "R",
              "type": "uint8"
            },
            {
              "internalType": "uint8",
              "name": "G",
              "type": "uint8"
            },
            {
              "internalType": "uint8",
              "name": "B",
              "type": "uint8"
            }
          ],
          "internalType": "struct TestConstructorArgs.Color",
          "name": "backgroundColor",
          "type": "tuple"
        },
        {
          "internalType": "string",
          "name": "txt",
          "type": "string"
        }
      ],
      "stateMutability": "payable",
      "type": "constructor"
    },
    {
      "inputs": [],
      "name": "theBackgroundColor",
      "outputs": [
        {
          "internalType": "uint8",
          "name": "R",
          "type": "uint8"
        },
        {
          "internalType": "uint8",
          "name": "G",
          "type": "uint8"
        },
        {
          "internalType": "uint8",
          "name": "B",
          "type": "uint8"
        }
      ],
      "stateMutability": "view",
      "type": "function"
    },
    {
      "inputs": [],
      "name": "theNumber",
      "outputs": [
        {
          "internalType": "uint256",
          "name": "",
          "type": "uint256"
        }
      ],
      "stateMutability": "view",
      "type": "function"
    },
    {
      "inputs": [],
      "name": "theTxt",
      "outputs": [
        {
          "internalType": "string",
          "name": "",
          "type": "string"
        }
      ],
      "stateMutability": "view",
      "type": "function"
    }
  ],
  "bytecode": "0x608060405260405161059b38038061059b833981016040819052610022916101fb565b66038d7ea4c6800034101561007d5760405162461bcd60e51b815260206004820152601560248201527f5061796d656e74206973206e6f7420656e6f7567680000000000000000000000604482015260640160405180910390fd5b6001839055815160008054602080860151604087015160ff908116620100000262ff0000199282166101000261ffff199095169190961617929092179190911692909217905581516100d591600291908401906100de565b50505050610347565b8280546100ea9061030d565b90600052602060002090601f01602090048101928261010c5760008555610152565b82601f1061012557805160ff1916838001178555610152565b82800160010185558215610152579182015b82811115610152578251825591602001919060010190610137565b5061015e929150610162565b5090565b5b8082111561015e5760008155600101610163565b634e487b7160e01b600052604160045260246000fd5b604051606081016001600160401b03811182821017156101af576101af610177565b60405290565b604051601f8201601f191681016001600160401b03811182821017156101dd576101dd610177565b604052919050565b805160ff811681146101f657600080fd5b919050565b600080600083850360a081121561021157600080fd5b845193506020601f196060838201121561022a57600080fd5b61023261018d565b925061023f8288016101e5565b835261024d604088016101e5565b8284015261025d606088016101e5565b604084015260808701519294506001600160401b038084111561027f57600080fd5b838801935088601f85011261029357600080fd5b8351818111156102a5576102a5610177565b6102b58484601f840116016101b5565b925080835289848287010111156102cb57600080fd5b600091505b808210156102ed57848201840151838301850152908301906102d0565b808211156102fe5760008482850101525b50508093505050509250925092565b600181811c9082168061032157607f821691505b60208210810361034157634e487b7160e01b600052602260045260246000fd5b50919050565b610245806103566000396000f3fe608060405234801561001057600080fd5b50600436106100415760003560e01c80633270284d14610046578063ca1d8b291461008f578063fb68540a146100a4575b600080fd5b6000546100669060ff808216916101008104821691620100009091041683565b6040805160ff948516815292841660208401529216918101919091526060015b60405180910390f35b6100976100bb565b6040516100869190610149565b6100ad60015481565b604051908152602001610086565b600280546100c8906101bc565b80601f01602080910402602001604051908101604052809291908181526020018280546100f4906101bc565b80156101415780601f1061011657610100808354040283529160200191610141565b820191906000526020600020905b81548152906001019060200180831161012457829003601f168201915b505050505081565b600060208083528351808285015260005b818110156101765785810183015185820160400152820161015a565b81811115610188576000604083870101525b50601f017fffffffffffffffffffffffffffffffffffffffffffffffffffffffffffffffe016929092016040019392505050565b600181811c908216806101d057607f821691505b602082108103610209577f4e487b7100000000000000000000000000000000000000000000000000000000600052602260045260246000fd5b5091905056fea2646970667358221220b36ee63be41d6af5c5c4d3ab4d4ae6379b253073c08f83f8be99fe3e204f23e264736f6c634300080d0033",
  "linkReferences": {},
  "deployedLinkReferences": {}
}